:100000000C9434000C9451000C9451000C94510049
:100010000C9451000C9451000C9451000C9451001C
:100020000C9451000C9451000C9451000C945B0BF7
:100030000C9451000C9451000C9451000C945100FC
:100040000C9451000C9451000C94040C0C949D0BD6
:100050000C9451000C9451000C9451000C945100DC
:100060000C9451000C94510011241FBECFEFD4E02A
:10007000DEBFCDBF11E0A0E0B1E0EEEDFEE102C0D9
:1000800005900D92A032B107D9F713E0A0E2B1E0DC
:1000900001C01D92A032B107E1F70E94140A0C942E
:1000A0006D0F0C940000DF93CF930F92CDB7DEB7A6
:1000B0008983EEE4F0E089818083EDE4F0E08081E3
:1000C0008823DCF7EEE4F0E080810F90CF91DF91A0
:1000D0000895DF93CF9300D000D0CDB7DEB78091E5
:1000E00048018A838EE180939A0281E0898379C0F6
:1000F0008981282F30E08A81882F90E0880F991F0E
:10010000FC01E05EFE4F80819181F901E656FD4FD2
:1001100080838981882F90E09C012F5F3F4F8A81E7
:10012000882F90E0880F991FFC01E05EFE4F8081D0
:100130009181892F9927F901E656FD4F80838A81A5
:10014000833128F48A81982F9F5F9C8301C01C8291
:100150008C818A838981882F90E09C012F5F3F4F9B
:100160008981882F90E00196FC01E656FD4F408181
:100170008A81882F90E0880F991FFC01E05EFE4F76
:10018000808191818295807F842BF901E656FD4F15
:1001900080838981882F90E09C012E5F3F4F8A8168
:1001A000882F90E0880F991FFC01E05EFE4F808150
:1001B0009181929582958F7089279F708927F90187
:1001C000E656FD4F80838A81833128F48A81982FF7
:1001D0009F5F9B8301C01B828B818A8389818D5F96
:1001E000898389818F3108F483CF0F900F900F900E
:1001F0000F90CF91DF910895DF93CF93CDB7DEB706
:1002000080914801882F90E02091B9023091BA0284
:10021000880F991FFC01E05EFE4F3183208310920E
:10022000BB0280914801833118F01092480105C04B
:10023000809148018F5F80934801CF91DF910895AD
:10024000DF93CF93CDB7DEB78091BB02882381F5D2
:10025000A8E2B0E0E8E2F0E080818C7F8C9386E059
:100260000E94530080E80E945300882F90E08F7016
:100270009070982F88279093BA028093B90280E0FB
:100280000E945300282F30E08091B9029091BA0269
:10029000822B932B9093BA028093B902A8E2B0E02C
:1002A000E8E2F0E0808183608C9381E08093BB0280
:1002B000CF91DF910895DF93CF93CDB7DEB7ECE414
:1002C000F0E081E58083109248011092BB02CF914B
:1002D000DF910895DF93CF9300D00F92CDB7DEB7B3
:1002E00089837B836A8389818A3079F42091CB0169
:1002F000822F992787FD9095FC01E557FE4F8DE0F1
:100300008083822F8F5F8093CB012091CB01822F3E
:10031000992787FD9095FC01E557FE4F89818083E1
:10032000822F8F5F8093CB018981882F90E00F907F
:100330000F900F90CF91DF910895CF92EF92FF929F
:100340000F93DF93CF93CDB7DEB72B970FB6F8940B
:10035000DEBF0FBECDBF9A8389837C836B834D83C1
:100360003F832E830887FA86E986CB8689819A8126
:100370009C012B5F3F4F8B819C814D81BC01C9014A
:100380000E94240929813A818E819F814885BC0180
:10039000C9010E942409E981FA81168AE981FA815A
:1003A0001686E981FA811286138614861586E981FC
:1003B000FA8189859A85918B808BE981FA818B8579
:1003C000838BE981FA81148AE981FA8117862B9659
:1003D0000FB6F894DEBF0FBECDBFCF91DF910F9166
:1003E000FF90EF90CF900895CF92EF92FF920F93EE
:1003F000DF93CF93CDB7DEB78AE691E09093950275
:1004000080939402109297021092960282E0809359
:100410008F0210929902109298028CE892E09093C9
:100420001D0380931C0389E491E02CE232E06CEC24
:1004300071E0EDEBF2E0CC246894C6F87C0100E6B4
:1004400040E6CF010E949D01CF91DF910F91FF9077
:10045000EF90CF900895DF93CF93CDB7DEB7289775
:100460000FB6F894DEBF0FBECDBF9B838A832A816F
:100470003B81CE010196BC01C9010E947509EA8148
:10048000FB818689282F30E038872F838F819885DC
:100490008430910509F419C12F8138852530310543
:1004A000ECF48F8198858130910509F441C02F814A
:1004B0003885223031052CF48F819885009739F1E9
:1004C00044C32F8138852230310509F492C08F81D1
:1004D00098858330910509F4CDC037C32F813885C5
:1004E0002630310509F48FC18F81988586309105BA
:1004F0000CF43EC12F8138852730310509F4B7C28D
:100500008F8198858830910509F4DEC21EC38981E8
:10051000803C48F08981EA81FB81828BEA81FB8102
:1005200081E0868B12C3EA81FB8181E086870DC35F
:10053000EA81FB818685882391F0EA81FB818285AF
:100540009385A485B5850196A11DB11DEA81FB8126
:1005500082879387A487B587EA81FB811686898184
:100560008D3B61F5EA81FB818289882F90E0817063
:100570009070882319F091E09E8301C01E82EA8169
:10058000FB812E812787EA81FB818289882F90E079
:100590008C709070009729F0EA81FB8182E0868B55
:1005A000D4C2EA81FB818FEF808FEA81FB818FEFDC
:1005B000818FEA81FB8184E0868BC7C28981803C80
:1005C00028F08981EA81FB81828BBFC2EA81FB81AD
:1005D00082859385A485B5850196A11DB11DEA810B
:1005E000FB8182879387A487B587EA81FB81168A7E
:1005F000ACC289818823FCF4EA81FB8182859385E2
:10060000A485B5850196A11DB11DEA81FB81828774
:100610009387A487B5878981803C48F08981EA81E6
:10062000FB81828BEA81FB8181E0868B8EC2EA812D
:10063000FB81168A8AC2EA81FB818289882F90E039
:1006400088709070009749F08981EA81FB81808FE2
:10065000EA81FB8183E0868B78C2EA81FB818FEFA0
:10066000808F8981EA81FB81818FEA81FB8184E02F
:10067000868B6BC289818823FCF4EA81FB818285A9
:100680009385A485B5850196A11DB11DEA81FB81E5
:1006900082879387A487B5878981803C48F08981C8
:1006A000EA81FB81828BEA81FB8181E0868B4DC2EE
:1006B000EA81FB81168A49C28981EA81FB81818FA7
:1006C000EA81FB8184E0868B40C2898188233CF5E6
:1006D00089818D3B29F4EA81FB8187E0868B35C2D5
:1006E000EA81FB8182859385A485B5850196A11D4C
:1006F000B11DEA81FB8182879387A487B5878981B1
:10070000803C48F08981EA81FB81828BEA81FB8110
:1007100081E0868B1AC2EA81FB81168A16C2EA81C1
:10072000FB818289882F90E082709070009749F059
:10073000EA81FB810088F189E02D898180688083CE
:1007400007C0EA81FB810088F189E02D89818083DF
:10075000EA81FB8181E0848BEA81FB8181E0878BE8
:10076000EA81FB81158AEA81FB8185E0868BEDC1F8
:1007700089818D3B29F4EA81FB8186E0868BE5C186
:10078000EA81FB819489EA81FB818389981798F03B
:10079000EA81FB8182859385A485B5850196A11D9B
:1007A000B11DEA81FB8182879387A487B587EA819F
:1007B000FB81168ACAC1EA81FB8120893189EA81DD
:1007C000FB814489842F90E0F901E80FF91F8981AA
:1007D0008083842F8F5FEA81FB81848B8981EA810A
:1007E000FB81858BEA81FB8187898F3720F0EA8145
:1007F000FB81178AAAC1EA81FB8187898F5FEA8121
:10080000FB81878BA2C189818D3B09F046C0EA81BB
:10081000FB819489EA81FB818389981798F0EA81AA
:10082000FB8182859385A485B5850196A11DB11DA7
:10083000EA81FB8182879387A487B587EA81FB8160
:10084000168A83C1EA81FB8120893189EA81FB8193
:100850004489842F90E0F901E80FF91F8981808392
:10086000842F8F5FEA81FB81848BEA81FB81158A6B
:10087000EA81FB8187898F3720F0EA81FB81178A23
:1008800007C0EA81FB8187898F5FEA81FB81878BC3
:10089000EA81FB8185E0868B58C189818E3B29F4F2
:1008A000EA81FB8188E0868B50C1EA81FB818285E9
:1008B0009385A485B5850196A11DB11DEA81FB81B3
:1008C00082879387A487B5878981803C48F0898196
:1008D000EA81FB81828BEA81FB8181E0868B35C1D5
:1008E000EA81FB818589803C08F4BDC0EA81FB81F7
:1008F0008589EA81FB81828BEA81FB818289882F4D
:1009000090E081709070882319F031E03D8301C040
:100910001D82EA81FB818D818787EA81FB81828943
:10092000882F90E08C709070009709F441C0898105
:100930008823FCF4EA81FB8182859385A485B585B3
:100940000196A11DB11DEA81FB8182879387A4874F
:10095000B5878981803C48F08981EA81FB81828B5F
:10096000EA81FB8181E0868BF0C0EA81FB81168AF7
:10097000ECC0EA81FB818289882F90E088709070BA
:10098000009749F08981EA81FB81808FEA81FB81B0
:1009900083E0868BDAC0EA81FB818FEF808F8981CB
:1009A000EA81FB81818FEA81FB8184E0868BCDC067
:1009B000EA81FB818FEF808FEA81FB818FEF818F4E
:1009C000898188233CF589818D3B29F4EA81FB816B
:1009D00087E0868BBAC0EA81FB8182859385A485F6
:1009E000B5850196A11DB11DEA81FB8182879387A0
:1009F000A487B5878981803C48F08981EA81FB81A1
:100A0000828BEA81FB8181E0868B9FC0EA81FB813A
:100A1000168A9BC0EA81FB818289882F90E08270D0
:100A20009070009749F0EA81FB810088F189E02D00
:100A300089818068808307C0EA81FB810088F18911
:100A4000E02D89818083EA81FB8181E0848BEA81CA
:100A5000FB8181E0878BEA81FB81158AEA81FB813A
:100A600085E0868B72C0EA81FB81168A6EC089811F
:100A70008E3B59F4EA81FB81148AEA81FB81178A53
:100A8000EA81FB8188E0868B60C0EA81FB818285F8
:100A90009385A485B5850196A11DB11DEA81FB81D1
:100AA00082879387A487B5878981803C48F08981B4
:100AB000EA81FB81828BEA81FB8181E0868B45C0E4
:100AC000EA81FB81168A41C089818823FCF4EA818E
:100AD000FB8182859385A485B5850196A11DB11DF5
:100AE000EA81FB8182879387A487B5878981803CCF
:100AF00048F08981EA81FB81828BEA81FB8181E078
:100B0000868B23C0EA81FB81168A1FC0EA81FB81A4
:100B100097898981981799F0EA81FB81828593856D
:100B2000A485B5850196A11DB11DEA81FB8182874F
:100B30009387A487B587EA81FB81168A06C0EA817C
:100B4000FB81168A91E09C8301C01C828C812896CF
:100B50000FB6F894DEBF0FBECDBFCF91DF910895E1
:100B6000DF93CF93CDB7DEB79091BE028091BD02E7
:100B7000981779F08DEB92E00E942B02882349F0C0
:100B80002091D1028091CD029091CE02622F0E94DD
:100B90006E0ACF91DF910895DF93CF9300D000D0FC
:100BA00000D0CDB7DEB789836A835C834B832D8306
:100BB000898180648093D8028A818093D90282E0FF
:100BC0008093D7028B819C8190938A0180938901C5
:100BD00019C03091D702832F992787FD9095A09156
:100BE0008901B0918A012C91FC01E852FD4F2083CC
:100BF000832F8F5F8093D702CD01019690938A0156
:100C0000809389018D818E838E81882311F081E00C
:100C10008E838E819D8191509D838823D1F6809112
:100C2000D702282F88ED92E0422FBC0181EC0E9470
:100C3000B50826960FB6F894DEBF0FBECDBFCF9194
:100C4000DF9108950F93DF93CF93CDB7DEB727974A
:100C50000FB6F894DEBF0FBECDBF89836A834B8386
:100C60003D832C830E838981806C8093D8028A8196
:100C70008093D9028B818093DA0283E08093D7023C
:100C80008C819D8190938A018093890119C0309154
:100C9000D702832F992787FD9095A0918901B09164
:100CA0008A012C91FC01E852FD4F2083832F8F5F36
:100CB0008093D702CD01019690938A018093890198
:100CC0008E818F838F81882311F081E08F838F81C4
:100CD0009E8191509E838823D1F68091D702282F40
:100CE00088ED92E0422FBC0181EC0E94B508279666
:100CF0000FB6F894DEBF0FBECDBFCF91DF910F913D
:100D00000895EF920F931F93DF93CF93CDB7DEB784
:100D100028970FB6F894DEBF0FBECDBF89836A83D4
:100D20004B832C831E830D83EF828981806C80939B
:100D3000D8028A818093D9028B8180688093DA02FD
:100D40008C818093DB0284E08093D7028D819E8129
:100D500090938A018093890119C03091D702832F23
:100D6000992787FD9095A0918901B0918A012C91D6
:100D7000FC01E852FD4F2083832F8F5F8093D702C1
:100D8000CD01019690938A01809389018F81888794
:100D90008885882311F081E0888788859F8191501C
:100DA0009F838823D1F68091D702282F88ED92E087
:100DB000422FBC0181EC0E94B50828960FB6F8942A
:100DC000DEBF0FBECDBFCF91DF911F910F91EF908E
:100DD0000895DF93CF930F92CDB7DEB789838981D2
:100DE00080648093D80281E08093D7020F90CF91E6
:100DF000DF910895DF93CF9300D000D00F92CDB74D
:100E0000DEB789837B836A834C838A819B8190933D
:100E10008A01809389012091D702822F992787FD2B
:100E20009095FC01E852FD4F89818083822F8F5F6E
:100E30008093D70219C03091D702832F992787FD5D
:100E40009095A0918901B0918A012C91FC01E85202
:100E5000FD4F2083832F8F5F8093D702CD010196B2
:100E600090938A01809389018C818D838D81882361
:100E700011F081E08D838D819C8191509C8388232A
:100E8000D1F60F900F900F900F900F90CF91DF91B0
:100E90000895DF93CF9300D000D0CDB7DEB79A830B
:100EA00089836B8389819A8190938A0180938901D8
:100EB00019C03091D702832F992787FD9095A09173
:100EC0008901B0918A012C91FC01E852FD4F2083E9
:100ED000832F8F5F8093D702CD01019690938A0173
:100EE000809389018B818C838C81882311F081E030
:100EF0008C838C819B8191509B838823D1F60F90AA
:100F00000F900F900F90CF91DF910895DF93CF93C3
:100F1000CDB7DEB78091D702282F88ED92E0422F1F
:100F2000BC0181EC0E94B508CF91DF910895DF9359
:100F3000CF93CDB7DEB71092D702CF91DF9108954E
:100F4000DF93CF9300D000D000D0CDB7DEB7898338
:100F50006A835C834B832D838B819C8190938A0170
:100F6000809389019091D702292F332727FD30954F
:100F700089818064F901E852FD4F8083892F8F5F5A
:100F80008093D7022091D702822F992787FD9095D1
:100F9000FC01E852FD4F8A818083822F8F5F80930E
:100FA000D70219C03091D702832F992787FD9095DA
:100FB000A0918901B0918A012C91FC01E852FD4F6A
:100FC0002083832F8F5F8093D702CD01019690936A
:100FD0008A01809389018D818E838E81882311F00F
:100FE00081E08E838E819D8191509D838823D1F6EF
:100FF00026960FB6F894DEBF0FBECDBFCF91DF911E
:1010000008950F93DF93CF93CDB7DEB727970FB631
:10101000F894DEBF0FBECDBF89836A834B833D83C7
:101020002C830E838C819D8190938A01809389010A
:101030009091D702292F332727FD30958981806C25
:10104000F901E852FD4F8083892F8F5F8093D7028B
:101050002091D702822F992787FD9095FC01E852B5
:10106000FD4F8A818083822F8F5F8093D7022091EA
:10107000D702822F992787FD9095FC01E852FD4FFA
:101080008B818083822F8F5F8093D70219C030912C
:10109000D702832F992787FD9095A0918901B09160
:1010A0008A012C91FC01E852FD4F2083832F8F5F32
:1010B0008093D702CD01019690938A018093890194
:1010C0008E818F838F81882311F081E08F838F81C0
:1010D0009E8191509E838823D1F627960FB6F8946F
:1010E000DEBF0FBECDBFCF91DF910F910895DF938B
:1010F000CF93CDB7DEB78091D702282F88ED92E04D
:10110000422FBC0180EC0E94B508CF91DF91089579
:10111000DF93CF9300D0CDB7DEB783E480938B010C
:1011200010928C0183E08093CB01CE0109969A83C3
:10113000898389819A812F813885BC01C9010E94E8
:10114000AE0C8091CB01835080938D018091CB01B7
:10115000282F8BE891E0422FBC0181EC0E94B5085A
:101160000F900F90CF91DF910895DF93CF9300D030
:1011700000D000D0CDB7DEB78B837D836C834E83E8
:101180001A828E81882379F0EC81FD818081882309
:1011900054F48B8182608B83EC81FD8180818F7719
:1011A000EC81FD81808382EC92E06B810E94480992
:1011B00082EC92E06DEB0E944809198229C0898176
:1011C000282F30E08C819D81FC01E20FF31F2081EC
:1011D00082EC92E0622F0E9448098981282F30E03A
:1011E0008C819D81FC01E20FF31F80818D3B29F4EE
:1011F00082EC92E06DEB0E9448098A818F3710F0F3
:101200001A8203C08A818F5F8A8389818F5F898375
:1012100099818E81981798F282EC92E06DEB0E9492
:10122000480982EC92E06EEB0E94480982EC92E061
:101230006A810E94480926960FB6F894DEBF0FBE59
:10124000CDBFCF91DF910895DF93CF9300D000D031
:101250000F92CDB7DEB79A8389837C836B834D83EE
:10126000E981FA811082E981FA811182E981FA81AA
:101270008B819C8194838383E981FA818D81828330
:101280000F900F900F900F900F90CF91DF910895D6
:10129000DF93CF9300D00F92CDB7DEB79A838983C7
:1012A0006B83E981FA8123813481E981FA8140816C
:1012B000842F90E0F901E80FF91F8B818083842F40
:1012C0008F5FE981FA818083E981FA819081E981E8
:1012D000FA818281981719F4E981FA8110820F90BE
:1012E0000F900F90CF91DF910895DF93CF9300D0AF
:1012F00000D0CDB7DEB79A8389837C836B83E98185
:10130000FA8123813481E981FA814181842F90E03F
:10131000F901E80FF91F8081EB81FC818083842F24
:101320008F5FE981FA818183E981FA819181E98185
:10133000FA818281981719F4E981FA8111820F905C
:101340000F900F900F90CF91DF910895DF93CF937F
:101350000F92CDB7DEB789838981882341F0A8E257
:10136000B0E0E8E2F0E0808181608C9307C0A8E201
:10137000B0E0E8E2F0E080818E7F8C930F90CF9117
:10138000DF910895DF93CF93CDB7DEB7E4E2F0E0CD
:101390008CE28083E7E2F0E087E08083EAE2F0E03D
:1013A00082E08083E8E2F0E084E08083CF91DF9107
:1013B0000895DF93CF93CDB7DEB7E8E2F0E0808108
:1013C000882F90E082709070009741F0A8E2B0E022
:1013D000E8E2F0E080818D7F8C9307C0A8E2B0E066
:1013E000E8E2F0E0808182608C93CF91DF910895F4
:1013F000DF93CF93CDB7DEB7A8E2B0E0E8E2F0E04C
:10140000808182608C93CF91DF910895DF93CF9399
:10141000CDB7DEB7A8E2B0E0E8E2F0E080818D7FF2
:101420008C93CF91DF910895DF93CF93CDB7DEB743
:101430000E94C2090E942E0A0E945B010E94850B35
:101440000E94400B78940E94B0050E94470B809147
:10145000BB028823C1F30E94FC00F5CFDF93CF933A
:10146000CDB7DEB780E00E94A60980E090E00E9440
:10147000490A8093BC028091BC0288231CF48FE748
:101480008093BC020E94F4010E948F0CCF91DF91E7
:101490000895DF93CF9300D0CDB7DEB79A838983C9
:1014A000EFE3F0E08081882F90E0827090700097E9
:1014B000B9F7E1E4F0E089819A8191838083AFE319
:1014C000B0E0EFE3F0E0808181608C93E0E4F0E055
:1014D00080810F900F90CF91DF910895DF93CF938C
:1014E00000D00F92CDB7DEB79A8389836B838B814F
:1014F000882309F441C0E981FA818081882F90E036
:101500008F3F9105C9F58B818230D8F189819A810D
:10151000FC01319680818823A4F189819A81FC01A4
:1015200031968081682F80E090E00E94C70A89810F
:101530009A81FC0131968081282F30E08091BC0295
:10154000882F90E03F932F939F938F9380E091E0BB
:101550009F938F930E9488088DB79EB706960FB60B
:10156000F8949EBF0FBE8DBF89819A81FC01319690
:1015700080818093BC0205C089819A816B810E9421
:10158000F10A0F900F900F90CF91DF910895DF93A4
:10159000CF9300D00F92CDB7DEB79A8389836B8348
:1015A000EFE3F0E08081882F90E0827090700097E8
:1015B000B9F7EFE3F0E01082E1E4F0E089819A818D
:1015C00091838083E0E4F0E08B8180830FB6F89410
:1015D000FA9AF99A0FBE0F900F900F90CF91DF916A
:1015E0000895DF93CF9300D00F92CDB7DEB79A83E3
:1015F00089836B838B818823B9F0E981FA818081AB
:10160000882F90E0009781F48091B9029091BA02FE
:101610009F938F938BE191E09F938F930E94880813
:101620000F900F900F900F900F900F900F90CF9101
:10163000DF910895EF920F931F93DF93CF93CDB770
:10164000DEB7A8E2B0E0E8E2F0E0908182E089272E
:101650008C930E9469003091BC028AE992E00F2EBF
:10166000FFE1EF2EF02D8C0120E04AE0632F87E0B0
:101670000E948106CF91DF911F910F91EF90089505
:10168000DF93CF93CDB7DEB7CF91DF910895DF938E
:10169000CF93CDB7DEB780911E01882F90E028E070
:1016A00030E0AC0163E070E082E090E00E94CC05A5
:1016B000CF91DF9108951F920F920FB60F921124D0
:1016C0002F933F934F935F936F937F938F939F934A
:1016D000AF93BF93EF93FF93DF93CF93CDB7DEB775
:1016E0000E942001CF91DF91FF91EF91BF91AF91C7
:1016F0009F918F917F916F915F914F913F912F912A
:101700000F900FBE0F901F901895DF93CF93CDB71A
:10171000DEB7E0E8F0E01082E1E8F0E08BE0808303
:10172000E8E8F0E089EF90E091838083EFE6F0E075
:1017300082E08083CF91DF9108951F920F920FB6C0
:101740000F9211242F933F934F935F936F937F9347
:101750008F939F93AF93BF93EF93FF93DF93CF93B9
:10176000CDB7DEB79091C2028091C3029817E1F025
:10177000A6ECB0E02091C5023091C6024091C302B0
:10178000842F90E0F901E80FF91F80818C93842F5A
:101790008F5F8093C3029091C3028091C402981717
:1017A00001F51092C3021DC080911803882369F4CB
:1017B00081E080931803E1ECF0E08DEB8083E6ECB0
:1017C000F0E08091BC0280830CC0E1ECF0E08CE999
:1017D00080831092180380E00E94A60981E0809324
:1017E0001903CF91DF91FF91EF91BF91AF919F913D
:1017F0008F917F916F915F914F913F912F910F90BA
:101800000FBE0F901F9018951F920F920FB60F9258
:1018100011242F933F934F935F936F937F938F93F5
:101820009F93AF93BF93EF93FF93DF93CF930F9269
:10183000CDB7DEB7E1ECF0E08081882F90E08270D8
:101840009070009769F1E6ECF0E0808189838981EE
:10185000882F90E09C012F7730708091BC02882FF8
:1018600090E02817390741F08981882F90E08F7721
:1018700090708F37910579F4E0ECF0E01082898167
:1018800088234CF50E941A0B80911903882319F1C3
:101890000E947F0C20C0E0ECF0E081E080831BC060
:1018A0002091C0023091C1024091BD02842F90E08E
:1018B000D901A80FB91FE6ECF0E080818C93842F4A
:1018C0008F5F8093BD029091BD028091BF029817F7
:1018D00011F41092BD020F90CF91DF91FF91EF9123
:1018E000BF91AF919F918F917F916F915F914F9138
:1018F0003F912F910F900FBE0F901F901895DF937F
:10190000CF93CDB7DEB781E00E94A60910921903EC
:10191000E1ECF0E08CEB8083CF91DF910895DF93D1
:10192000CF93CDB7DEB7E5ECF0E01082E4ECF0E069
:1019300089E18083E0ECF0E081E08083E1ECF0E09D
:101940008CE98083E2ECF0E086E0808381E08093A4
:10195000190310921803CF91DF910895AB01BC01D8
:1019600080911C0390911D030E94B70C0895ABE079
:10197000B0E0EDEBFCE00C94360F3C012B015A017A
:10198000FC0117821682838181FD03C06FEF7FEF18
:10199000C8C19AE0892E1E010894211C311CF30154
:1019A0002381F20123FD859123FF81912F0188235B
:1019B00009F4B4C1853239F423FD859123FF819167
:1019C0002F01853229F4B30190E00E94AC0EE7CFDD
:1019D000982FDD24CC249924FFE1FD15D0F09B3213
:1019E00069F09C3228F4903259F0933291F40EC091
:1019F0009D3249F0903369F441E024C052E0D52A89
:101A000084E0D82A28C098E0D92A25C0E0E1DE2A5F
:101A100022C0D7FC29C0892F80538A3070F4D6FEAB
:101A200005C0989C902C1124980E15C0C89CC02C01
:101A30001124C80EF0E2DF2A0EC09E3229F4D6FC33
:101A40006DC140E4D42A07C09C3619F450E8D52A69
:101A500002C0983649F4F20123FD959123FF91913C
:101A60002F01992309F0B8CF892F8554833018F0BE
:101A70008052833038F444E050E0A40EB51E5FE39A
:101A800059830FC0933631F0933779F0933509F0CD
:101A900056C020C0F5018081898342E050E0A40E49
:101AA000B51E710101E010E012C0F501E080F18087
:101AB000D6FC03C06FEF7FEF02C0692D70E042E0FB
:101AC00050E0A40EB51EC7010E94A10E8C015FE775
:101AD000D52214C0F501E080F180D6FC03C06FEF81
:101AE0007FEF02C0692D70E042E050E0A40EB51E09
:101AF000C7010E94960E8C0150E8D52AD3FE07C07C
:101B00001AC0B30180E290E00E94AC0ECA948C2D02
:101B100090E008171907A8F30EC0F701D7FC8591CC
:101B2000D7FE81917F01B30190E00E94AC0EC110FD
:101B3000CA94015010400115110579F7ECC0943694
:101B400011F0993671F5D7FE08C0F501E080F180FB
:101B50000281138144E050E00AC0F5018081918147
:101B60007C010027F7FC0095102F42E050E0A40E06
:101B7000B51E5FE6D52217FF0AC010950095F094B8
:101B8000E094E11CF11C011D111D80E8D82A2AE017
:101B900030E0A101C801B7010E94D80EF82EF2185A
:101BA00040C0953729F41D2D1F7E2AE030E01DC06E
:101BB0001D2D197F9F3661F0903720F4983509F07C
:101BC000ADC00FC0903739F0983709F0A7C004C0F6
:101BD00028E030E00AC0106114FD146020E130E01C
:101BE00004C014FD166020E132E017FF08C0F501C3
:101BF000608171818281938144E050E008C0F501E9
:101C000080819181BC0180E090E042E050E0A40E30
:101C1000B51EA1010E94D80EF82EF2188FE7D82E1B
:101C2000D122D6FE0BC05EEFD522F91438F4D4FED3
:101C300007C0D2FC05C08FEED82202C01F2D01C004
:101C4000192DD4FE0DC0FE01EF0DF11D80818033F2
:101C500019F499EED92208C01F5FD2FE05C003C057
:101C60008D2D867809F01F5F0D2DD3FC14C0D0FE9A
:101C70000FC01C1510F09F2C0BC09F2C9C0C911AB0
:101C80001C2D06C0B30180E290E00E94AC0E1F5FE5
:101C90001C15C0F304C01C1510F4C11A01C0CC24DB
:101CA00004FF10C0B30180E390E00E94AC0E02FF7D
:101CB0001EC001FD03C088E790E002C088E590E007
:101CC000B3010CC0802F867891F001FF02C08BE237
:101CD00001C080E2D7FC8DE2B30190E00E94AC0E1F
:101CE00006C0B30180E390E00E94AC0E9A94F91410
:101CF000C0F3FA94F101EF0DF11DB301808190E082
:101D00000E94AC0EFF20A9F706C0B30180E290E06C
:101D10000E94AC0ECA94CC20C1F741CEF30166817B
:101D20007781CB012B96E2E10C94520FFC010590D8
:101D3000615070400110D8F7809590958E0F9F1FCD
:101D40000895FC016150704001900110D8F7809512
:101D500090958E0F9F1F08950F931F93CF93DF933E
:101D60008C01EB018B8181FF1BC082FF0DC02E8196
:101D70003F818C819D812817390764F4E881F981BE
:101D80000193F983E88306C0E885F985802F0995DA
:101D9000892B31F48E819F8101969F838E8302C0AF
:101DA0000FEF1FEFC801DF91CF911F910F910895A1
:101DB000FA01AA27283051F1203181F1E8946F937C
:101DC0006E7F6E5F7F4F8F4F9F4FAF4FB1E03ED022
:101DD000B4E03CD0670F781F891F9A1FA11D680FC0
:101DE000791F8A1F911DA11D6A0F711D811D911DF3
:101DF000A11D20D009F468943F912AE0269F112468
:101E00003019305D3193DEF6CF010895462F4770CB
:101E1000405D4193B3E00FD0C9F7F6CF462F4F7026
:101E2000405D4A3318F0495D31FD4052419302D084
:101E3000A9F7EACFB4E0A69597958795779567952A
:101E4000BA95C9F700976105710508959B01AC012A
:101E50000A2E06945795479537952795BA95C9F751
:101E6000620F731F841F951FA01D08952F923F922C
:101E70004F925F926F927F928F929F92AF92BF929A
:101E8000CF92DF92EF92FF920F931F93CF93DF9346
:101E9000CDB7DEB7CA1BDB0B0FB6F894DEBF0FBEA3
:101EA000CDBF09942A88398848885F846E847D84F0
:101EB0008C849B84AA84B984C884DF80EE80FD80F2
:101EC0000C811B81AA81B981CE0FD11D0FB6F89468
:0E1ED000DEBF0FBECDBFED010895F894FFCF29
:101EDE004D6F64756C65204944206368616E67655B
:101EEE0064202564202D3E20256400256400010019
:00000001FF
