:100000000C9434000C9451000C9451000C94510049
:100010000C9451000C9451000C9451000C9451001C
:100020000C9451000C9451000C9451000C94F10A62
:100030000C9451000C9451000C9451000C945100FC
:100040000C9451000C9451000C949A0B0C94330BAB
:100050000C9451000C9451000C9451000C945100DC
:100060000C9451000C94510011241FBECFEFD4E02A
:10007000DEBFCDBF11E0A0E0B1E0E4E3FEE102C0ED
:1000800005900D92AA32B107D9F713E0AAE2B1E0C8
:1000900001C01D92AA32B107E1F70E94100A0C9428
:1000A000180F0C940000DF93CF930F92CDB7DEB7FB
:1000B0008983EEE4F0E089818083EDE4F0E08081E3
:1000C0008823DCF7EEE4F0E080810F90CF91DF91A0
:1000D0000895DF93CF9300D000D0CDB7DEB78091E5
:1000E00052018A838EE18093A40281E0898379C0E2
:1000F0008981282F30E08A81882F90E0880F991F0E
:10010000FC01E65DFE4F80819181F901EC55FD4FC8
:1001100080838981882F90E09C012F5F3F4F8A81E7
:10012000882F90E0880F991FFC01E65DFE4F8081CB
:100130009181892F9927F901EC55FD4F80838A81A0
:10014000833128F48A81982F9F5F9C8301C01C8291
:100150008C818A838981882F90E09C012F5F3F4F9B
:100160008981882F90E00196FC01EC55FD4F40817C
:100170008A81882F90E0880F991FFC01E65DFE4F71
:10018000808191818295807F842BF901EC55FD4F10
:1001900080838981882F90E09C012E5F3F4F8A8168
:1001A000882F90E0880F991FFC01E65DFE4F80814B
:1001B0009181929582958F7089279F708927F90187
:1001C000EC55FD4F80838A81833128F48A81982FF2
:1001D0009F5F9B8301C01B828B818A8389818D5F96
:1001E000898389818F3108F483CF0F900F900F900E
:1001F0000F90CF91DF910895DF93CF93CDB7DEB706
:1002000080915201882F90E02091C3023091C40266
:10021000880F991FFC01E65DFE4F31832083109209
:10022000C50280915201833118F01092520105C02D
:10023000809152018F5F80935201CF91DF91089599
:10024000DF93CF93CDB7DEB78091C502882381F5C8
:10025000A8E2B0E0E8E2F0E080818C7F8C9386E059
:100260000E94530080E80E945300882F90E08F7016
:100270009070982F88279093C4028093C30280E0E7
:100280000E945300282F30E08091C3029091C40255
:10029000822B932B9093C4028093C302A8E2B0E018
:1002A000E8E2F0E0808183608C9381E08093C50276
:1002B000CF91DF910895DF93CF93CDB7DEB7ECE414
:1002C000F0E081E58083109252011092C502CF9137
:1002D000DF910895DF93CF9300D00F92CDB7DEB7B3
:1002E00089837B836A8389818A3079F42091D5015F
:1002F000822F992787FD9095FC01EB56FE4F8DE0EC
:100300008083822F8F5F8093D5012091D501822F2A
:10031000992787FD9095FC01EB56FE4F89818083DC
:10032000822F8F5F8093D5018981882F90E00F9075
:100330000F900F90CF91DF910895CF92EF92FF929F
:100340000F93DF93CF93CDB7DEB72B970FB6F8940B
:10035000DEBF0FBECDBF9A8389837C836B834D83C1
:100360003F832E830887FA86E986CB8689819A8126
:1003700005962B813C81B9014D810E94200989811C
:100380009A812E813F81B90148850E942009E98127
:10039000FA81168AE981FA811686E981FA81128644
:1003A000138614861586E981FA8189859A85918B51
:1003B000808BE981FA818B85838BE981FA81148AAC
:1003C000E981FA8117862B960FB6F894DEBF0FBE2F
:1003D000CDBFCF91DF910F91FF90EF90CF90089517
:1003E000CF92EF92FF920F93DF93CF93CDB7DEB70B
:1003F0008AE691E090939F0280939E021092A10260
:100400001092A00282E0809399021092A3021092AF
:10041000A20286E992E0909327038093260387EC5B
:1004200092E026ED31E0E6E3F2E0A3E5B1E0B901C8
:1004300040E69F0100E67D01CC246894C6F80E9446
:100440009D01CF91DF910F91FF90EF90CF90089594
:10045000DF93CF93CDB7DEB728970FB6F894DEBF02
:100460000FBECDBF9B838A838A819B819E012F5FB4
:100470003F4FB9010E947109EA81FB818689282FCB
:1004800030E038872F838F8198858430910509F477
:1004900019C12F81388525303105ECF48F8198857D
:1004A0008130910509F441C02F8138852230310512
:1004B0002CF48F819885009739F144C32F813885BA
:1004C0002230310509F492C08F81988583309105DF
:1004D00009F4CDC037C32F8138852630310509F4A2
:1004E0008FC18F819885863091050CF43EC12F8194
:1004F00038852730310509F4B7C28F819885883057
:10050000910509F4DEC21EC38981803C48F08981CF
:10051000EA81FB81828BEA81FB8181E0868B12C3B9
:10052000EA81FB8181E086870DC3EA81FB818685B4
:10053000882391F0EA81FB8182859385A485B58526
:100540000196A11DB11DEA81FB8182879387A48753
:10055000B587EA81FB81168689818D3B61F5EA8149
:10056000FB818289882F90E081709070882319F038
:1005700091E09E8301C01E82EA81FB812E81278744
:10058000EA81FB818289882F90E08C7090700097BF
:1005900029F0EA81FB8182E0868BD4C2EA81FB816B
:1005A0008FEF808FEA81FB818FEF818FEA81FB8162
:1005B00084E0868BC7C28981803C28F08981EA81EA
:1005C000FB81828BBFC2EA81FB8182859385A485F2
:1005D000B5850196A11DB11DEA81FB8182879387B4
:1005E000A487B587EA81FB81168AACC289818823FA
:1005F000FCF4EA81FB8182859385A485B58501960B
:10060000A11DB11DEA81FB8182879387A487B587ED
:100610008981803C48F08981EA81FB81828BEA8173
:10062000FB8181E0868B8EC2EA81FB81168A8AC2B9
:10063000EA81FB818289882F90E088709070009712
:1006400049F08981EA81FB81808FEA81FB8183E027
:10065000868B78C2EA81FB818FEF808F8981EA8166
:10066000FB81818FEA81FB8184E0868B6BC289816B
:100670008823FCF4EA81FB8182859385A485B58576
:100680000196A11DB11DEA81FB8182879387A48712
:10069000B5878981803C48F08981EA81FB81828B22
:1006A000EA81FB8181E0868B4DC2EA81FB81168A5B
:1006B00049C28981EA81FB81818FEA81FB8184E0E3
:1006C000868B40C2898188233CF589818D3B29F442
:1006D000EA81FB8187E0868B35C2EA81FB818285D6
:1006E0009385A485B5850196A11DB11DEA81FB8185
:1006F00082879387A487B5878981803C48F0898168
:10070000EA81FB81828BEA81FB8181E0868B1AC2C0
:10071000EA81FB81168A16C2EA81FB818289882FD1
:1007200090E082709070009749F0EA81FB81008828
:10073000F189E02D89818068808307C0EA81FB818F
:100740000088F189E02D89818083EA81FB8181E045
:10075000848BEA81FB8181E0878BEA81FB81158AAA
:10076000EA81FB8185E0868BEDC189818D3B29F48F
:10077000EA81FB8186E0868BE5C1EA81FB81948971
:10078000EA81FB818389981798F0EA81FB81828551
:100790009385A485B5850196A11DB11DEA81FB81D4
:1007A00082879387A487B587EA81FB81168ACAC1AD
:1007B000EA81FB8120893189EA81FB814489842F88
:1007C00090E0F901E80FF91F89818083842F8F5F02
:1007D000EA81FB81848B8981EA81FB81858BEA81B7
:1007E000FB8187898F3720F0EA81FB81178AAAC1B4
:1007F000EA81FB8187898F5FEA81FB81878BA2C1B8
:1008000089818D3B09F046C0EA81FB819489EA81A8
:10081000FB818389981798F0EA81FB818285938513
:10082000A485B5850196A11DB11DEA81FB81828752
:100830009387A487B587EA81FB81168A83C1EA8101
:10084000FB8120893189EA81FB814489842F90E0F2
:10085000F901E80FF91F89818083842F8F5FEA8176
:10086000FB81848BEA81FB81158AEA81FB81878980
:100870008F3720F0EA81FB81178A07C0EA81FB816C
:1008800087898F5FEA81FB81878BEA81FB8185E025
:10089000868B58C189818E3B29F4EA81FB8188E0EF
:1008A000868B50C1EA81FB8182859385A485B585BD
:1008B0000196A11DB11DEA81FB8182879387A487E0
:1008C000B5878981803C48F08981EA81FB81828BF0
:1008D000EA81FB8181E0868B35C1EA81FB818589D4
:1008E000803C08F4BDC0EA81FB818589EA81FB81F7
:1008F000828BEA81FB818289882F90E081709070E1
:10090000882319F031E03D8301C01D82EA81FB811B
:100910008D818787EA81FB818289882F90E08C70A6
:100920009070009709F441C089818823FCF4EA8122
:10093000FB8182859385A485B5850196A11DB11D96
:10094000EA81FB8182879387A487B5878981803C70
:1009500048F08981EA81FB81828BEA81FB8181E019
:10096000868BF0C0EA81FB81168AECC0EA81FB81AC
:100970008289882F90E088709070009749F0898173
:10098000EA81FB81808FEA81FB8183E0868BDAC07C
:10099000EA81FB818FEF808F8981EA81FB81818FE2
:1009A000EA81FB8184E0868BCDC0EA81FB818FEFF9
:1009B000808FEA81FB818FEF818F898188233CF5CD
:1009C00089818D3B29F4EA81FB8187E0868BBAC05F
:1009D000EA81FB8182859385A485B5850196A11D59
:1009E000B11DEA81FB8182879387A487B5878981BE
:1009F000803C48F08981EA81FB81828BEA81FB811E
:100A000081E0868B9FC0EA81FB81168A9BC0EA81C8
:100A1000FB818289882F90E082709070009749F066
:100A2000EA81FB810088F189E02D898180688083DB
:100A300007C0EA81FB810088F189E02D89818083EC
:100A4000EA81FB8181E0848BEA81FB8181E0878BF5
:100A5000EA81FB81158AEA81FB8185E0868B72C081
:100A6000EA81FB81168A6EC089818E3B59F4EA8146
:100A7000FB81148AEA81FB81178AEA81FB8188E085
:100A8000868B60C0EA81FB8182859385A485B585CC
:100A90000196A11DB11DEA81FB8182879387A487FE
:100AA000B5878981803C48F08981EA81FB81828B0E
:100AB000EA81FB8181E0868B45C0EA81FB81168A51
:100AC00041C089818823FCF4EA81FB81828593857A
:100AD000A485B5850196A11DB11DEA81FB818287A0
:100AE0009387A487B5878981803C48F08981EA8112
:100AF000FB81828BEA81FB8181E0868B23C0EA81C6
:100B0000FB81168A1FC0EA81FB819789898198172A
:100B100099F0EA81FB8182859385A485B58501964C
:100B2000A11DB11DEA81FB8182879387A487B587C8
:100B3000EA81FB81168A06C0EA81FB81168A91E070
:100B40009C8301C01C828C8128960FB6F894DEBF6E
:100B50000FBECDBFCF91DF910895DF93CF93CDB777
:100B6000DEB79091C8028091C702981779F087ECA0
:100B700092E00E942802882349F08091D702909148
:100B8000D8022091DB02622F0E944E0ACF91DF91A2
:100B90000895DF93CF9300D000D000D0CDB7DEB75B
:100BA00089836A835C834B832D83898180648093EE
:100BB000E2028A818093E30282E08093E1028B81EA
:100BC0009C81909394018093930119C03091E1022C
:100BD000832F992787FD9095A0919301B09194015F
:100BE0002C91FC01EE51FD4F2083832F8F5F80936A
:100BF000E102CD01019690939401809393018D8140
:100C00008E838E81882311F081E08E838E819D8179
:100C100091509D838823D1F68091E102982F22EE96
:100C200032E081ECB901492F0E94B10826960FB637
:100C3000F894DEBF0FBECDBFCF91DF9108950F9323
:100C4000DF93CF93CDB7DEB727970FB6F894DEBF0B
:100C50000FBECDBF89836A834B833D832C830E8374
:100C60008981806C8093E2028A818093E3028B8188
:100C70008093E40283E08093E1028C819D819093D4
:100C800094018093930119C03091E102832F992739
:100C900087FD9095A0919301B09194012C91FC0156
:100CA000EE51FD4F2083832F8F5F8093E102CD01B2
:100CB000019690939401809393018E818F838F810D
:100CC000882311F081E08F838F819E8191509E83D4
:100CD0008823D1F68091E102982F22EE32E081EC58
:100CE000B901492F0E94B10827960FB6F894DEBFCC
:100CF0000FBECDBFCF91DF910F910895EF920F936B
:100D00001F93DF93CF93CDB7DEB728970FB6F89434
:100D1000DEBF0FBECDBF89836A834B832C831E83C6
:100D20000D83EF828981806C8093E2028A818093B7
:100D3000E3028B8180688093E4028C818093E502DA
:100D400084E08093E1028D819E8190939401809351
:100D5000930119C03091E102832F992787FD909567
:100D6000A0919301B09194012C91FC01EE51FD4FA3
:100D70002083832F8F5F8093E102CD0101969093B2
:100D80009401809393018F8188878885882311F04F
:100D900081E0888788859F8191509F838823D1F641
:100DA0008091E102982F22EE32E081ECB901492FC7
:100DB0000E94B10828960FB6F894DEBF0FBECDBFD3
:100DC000CF91DF911F910F91EF900895DF93CF9313
:100DD0000F92CDB7DEB78983898180648093E20268
:100DE00081E08093E1020F90CF91DF910895DF932E
:100DF000CF9300D000D00F92CDB7DEB789837B832D
:100E00006A834C838A819B819093940180939301A0
:100E10002091E102822F992787FD9095FC01EE51E8
:100E2000FD4F89818083822F8F5F8093E10219C0FB
:100E30003091E102832F992787FD9095A09193012E
:100E4000B09194012C91FC01EE51FD4F2083832F32
:100E50008F5F8093E102CD0101969093940180937E
:100E600093018C818D838D81882311F081E08D83A6
:100E70008D819C8191509C838823D1F60F900F9097
:100E80000F900F900F90CF91DF910895DF93CF9344
:100E900000D000D0CDB7DEB79A8389836B83898178
:100EA0009A81909394018093930119C03091E1024B
:100EB000832F992787FD9095A0919301B09194017C
:100EC0002C91FC01EE51FD4F2083832F8F5F809387
:100ED000E102CD01019690939401809393018B815F
:100EE0008C838C81882311F081E08C838C819B81A1
:100EF00091509B838823D1F60F900F900F900F9005
:100F0000CF91DF910895DF93CF93CDB7DEB7809176
:100F1000E102982F22EE32E081ECB901492F0E94C4
:100F2000B108CF91DF910895DF93CF93CDB7DEB7AE
:100F30001092E102CF91DF910895DF93CF9300D01B
:100F400000D000D0CDB7DEB789836A835C834B8342
:100F50002D838B819C819093940180939301909138
:100F6000E102292F332727FD309589818064F9011B
:100F7000EE51FD4F8083892F8F5F8093E102209196
:100F8000E102822F992787FD9095FC01EE51FD4FDC
:100F90008A818083822F8F5F8093E10219C0309114
:100FA000E102832F992787FD9095A0919301B0913D
:100FB00094012C91FC01EE51FD4F2083832F8F5F14
:100FC0008093E102CD010196909394018093930167
:100FD0008D818E838E81882311F081E08E838E81B6
:100FE0009D8191509D838823D1F626960FB6F89463
:100FF000DEBF0FBECDBFCF91DF9108950F93DF937A
:10100000CF93CDB7DEB727970FB6F894DEBF0FBEEC
:10101000CDBF89836A834B833D832C830E838C8170
:101020009D8190939401809393019091E102292FE7
:10103000332727FD30958981806CF901EE51FD4FF2
:101040008083892F8F5F8093E1022091E102822FBC
:10105000992787FD9095FC01EE51FD4F8A81808391
:10106000822F8F5F8093E1022091E102822F9927E6
:1010700087FD9095FC01EE51FD4F8B818083822F7F
:101080008F5F8093E10219C03091E102832F99278D
:1010900087FD9095A0919301B09194012C91FC0152
:1010A000EE51FD4F2083832F8F5F8093E102CD01AE
:1010B000019690939401809393018E818F838F8109
:1010C000882311F081E08F838F819E8191509E83D0
:1010D0008823D1F627960FB6F894DEBF0FBECDBF9A
:1010E000CF91DF910F910895DF93CF93CDB7DEB706
:1010F0008091E102982F22EE32E080ECB901492F75
:101100000E94B108CF91DF910895DF93CF9300D073
:10111000CDB7DEB783E4809395011092960183E00A
:101120008093D501CE0109969A83898329813A81DA
:101130008F819885B9010E94440C8091D50183501C
:10114000809397018091D501982F25E931E081ECBA
:10115000B901492F0E94B1080F900F90CF91DF91F4
:101160000895DF93CF9300D000D000D0CDB7DEB785
:101170008B837D836C834E831A828E81882379F0E2
:10118000EC81FD818081882354F48B8182608B8384
:10119000EC81FD8180818F77EC81FD8180838CECF7
:1011A00092E06B810E9444098CEC92E06DEB0E940E
:1011B0004409198229C08981282F30E08C819D81C2
:1011C000FC01E20FF31F20818CEC92E0622F0E9461
:1011D00044098981282F30E08C819D81FC01E20F38
:1011E000F31F80818D3B29F48CEC92E06DEB0E9423
:1011F00044098A818F3710F01A8203C08A818F5F79
:101200008A8389818F5F898399818E81981798F26B
:101210008CEC92E06DEB0E9444098CEC92E06EEB5A
:101220000E9444098CEC92E06A810E94440926964F
:101230000FB6F894DEBF0FBECDBFCF91DF910895FA
:10124000DF93CF9300D000D00F92CDB7DEB79A8353
:1012500089837C836B834D83E981FA811082E981E4
:10126000FA811182E981FA818B819C819483838345
:10127000E981FA818D8182830F900F900F900F90FA
:101280000F90CF91DF910895DF93CF9300D00F920D
:10129000CDB7DEB79A8389836B83E981FA81238195
:1012A0003481E981FA814081842F90E0F901E80FCF
:1012B000F91F8B818083842F8F5FE981FA8180837E
:1012C000E981FA819081E981FA818281981719F484
:1012D000E981FA8110820F900F900F90CF91DF91EA
:1012E0000895DF93CF9300D000D0CDB7DEB79A83B7
:1012F00089837C836B83E981FA8123813481E9814D
:10130000FA814181842F90E0F901E80FF91F808173
:10131000EB81FC818083842F8F5FE981FA81818357
:10132000E981FA819181E981FA818281981719F422
:10133000E981FA8111820F900F900F900F90CF9159
:10134000DF910895DF93CF930F92CDB7DEB78983F6
:101350008981882341F0A8E2B0E0E8E2F0E08081F2
:1013600081608C9307C0A8E2B0E0E8E2F0E0808101
:101370008E7F8C930F90CF91DF910895DF93CF9361
:10138000CDB7DEB7E4E2F0E08CE28083E7E2F0E0A4
:1013900087E08083EAE2F0E082E08083E8E2F0E048
:1013A00084E08083CF91DF910895DF93CF93CDB711
:1013B000DEB7E8E2F0E08081882F90E082709070E4
:1013C000009741F0A8E2B0E0E8E2F0E080818D7F94
:1013D0008C9307C0A8E2B0E0E8E2F0E08081826090
:1013E0008C93CF91DF910895DF93CF93CDB7DEB784
:1013F000A8E2B0E0E8E2F0E0808182608C93CF91D7
:10140000DF910895DF93CF93CDB7DEB7A8E2B0E0C8
:10141000E8E2F0E080818D7F8C93CF91DF91089599
:10142000DF93CF93CDB7DEB70E94BE090E94330A87
:101430007894E4E2F0E08FEF8083E5E2F0E08FEF74
:10144000808320E031E082E063E0A90128E00E948F
:10145000C905E5E2F0E010820E94AD05E5E2F0E0AA
:101460008FEF8083F6CFDF93CF93CDB7DEB780E0E9
:101470000E94A20980E090E00E942B0E8093C60299
:101480008091C60288231CF48FE78093C6020E94D5
:10149000F0010E94250CCF91DF910895DF93CF9347
:1014A00000D00F92CDB7DEB79A8389836B838B818F
:1014B000882309F449C0E981FA818081882F90E06E
:1014C0008F3F910509F040C08B81823008F441C004
:1014D00089819A81FC01319680818823D4F18981A8
:1014E0009A81FC013196208180E090E0622F0E9479
:1014F000330E8091C602482F50E089819A81FC0109
:1015000031968081282F30E000D000D000D0EDB798
:10151000FEB7319688E091E09183808353834283C4
:10152000358324830E9485088DB79EB706960FB633
:10153000F8949EBF0FBE8DBF89819A81FC013196C0
:1015400080818093C60205C089819A816B810E9447
:10155000AF0A0F900F900F90CF91DF910895DF9316
:10156000CF9300D00F92CDB7DEB79A8389836B8378
:101570008B81882399F0E981FA818081882F90E01E
:10158000009761F400D0EDB7FEB7319683E291E0A9
:10159000918380830E9485080F900F900F900F9089
:1015A0000F90CF91DF910895DF93CF93CDB7DEB742
:1015B000A8E2B0E0E8E2F0E0908182E089278C9335
:1015C000CF91DF910895DF93CF93CDB7DEB7CF9161
:1015D000DF910895DF93CF93CDB7DEB7CF91DF9141
:1015E00008951F920F920FB60F9211242F933F93DD
:1015F0004F935F936F937F938F939F93AF93BF931B
:10160000EF93FF93DF93CF93CDB7DEB70E94200116
:10161000CF91DF91FF91EF91BF91AF919F918F910A
:101620007F916F915F914F913F912F910F900FBEDE
:101630000F901F901895DF93CF93CDB7DEB7E0E8FA
:10164000F0E01082E1E8F0E08BE08083E8E8F0E091
:1016500089EF90E091838083EFE6F0E082E0808381
:10166000CF91DF9108951F920F920FB60F92112420
:101670002F933F934F935F936F937F938F939F939A
:10168000AF93BF93EF93FF93DF93CF93CDB7DEB7C5
:101690009091CC028091CD029817E1F0A6ECB0E0D9
:1016A0002091CF023091D0024091CD02842F90E062
:1016B000F901E80FF91F80818C93842F8F5F80934D
:1016C000CD029091CD028091CE02981701F5109233
:1016D000CD021DC080912203882369F481E08093AC
:1016E0002203E1ECF0E08DEB8083E6ECF0E080910A
:1016F000C60280830CC0E1ECF0E08CE9808310929C
:10170000220380E00E94A20981E080932303CF910D
:10171000DF91FF91EF91BF91AF919F918F917F9159
:101720006F915F914F913F912F910F900FBE0F904E
:101730001F9018951F920F920FB60F9211242F939E
:101740003F934F935F936F937F938F939F93AF9349
:10175000BF93EF93FF93DF93CF930F92CDB7DEB795
:10176000E1ECF0E08081882F90E08270907000972B
:1017700069F1E6ECF0E0808189838981882F90E02F
:101780009C012F7730708091C602882F90E0281737
:10179000390741F08981882F90E08F7790708F37DB
:1017A000910579F4E0ECF0E01082898188234CF512
:1017B0000E94D40A80912303882319F10E94150CFA
:1017C00020C0E0ECF0E081E080831BC02091CA02E1
:1017D0003091CB024091C702842F90E0D901A80F2D
:1017E000B91FE6ECF0E080818C93842F8F5F8093AB
:1017F000C7029091C7028091C902981711F4109204
:10180000C7020F90CF91DF91FF91EF91BF91AF9100
:101810009F918F917F916F915F914F913F912F9108
:101820000F900FBE0F901F901895DF93CF93CDB7F9
:10183000DEB781E00E94A20910922303E1ECF0E000
:101840008CEB8083CF91DF910895DF93CF93CDB759
:10185000DEB7E5ECF0E01082E4ECF0E089E18083B3
:10186000E0ECF0E081E08083E1ECF0E08CE9808363
:10187000E2ECF0E086E0808381E080932303109225
:101880002203CF91DF9108959C01AB018091260343
:1018900090912703B9010E944E0C0895ABE0B0E08F
:1018A000E4E5FCE00C94E10E3C012B015A01FC0143
:1018B00017821682838181FD03C06FEF7FEFC6C15F
:1018C0009AE0892E1E010894211C311CF30123810A
:1018D000F20123FD859123FF81912F01882309F4D3
:1018E000B2C1853239F423FD859123FF81912F0107
:1018F000853229F490E0B3010E94570EE7CF982F6C
:10190000FF24EE249924FFE1FF15D0F09B3269F00B
:101910009C3228F4903259F0933291F40EC09D32EB
:1019200049F0903369F441E024C052E0F52A84E0A4
:10193000F82A28C098E0F92A25C0E0E1FE2A22C052
:10194000F7FC29C0892F80538A3070F4F6FE05C059
:10195000989C902C1124980E15C0E89CE02C112422
:10196000E80EF0E2FF2A0EC09E3229F4F6FC6BC1AD
:1019700040E4F42A07C09C3619F450E8F52A02C066
:10198000983649F4F20123FD959123FF91912F019F
:10199000992309F0B8CF892F8554833018F08052ED
:1019A000833038F444E050E0A40EB51E5FE3598361
:1019B0000FC0933631F0933779F0933509F056C064
:1019C00020C0F5018081898342E050E0A40EB51E5D
:1019D000610101E010E012C0F501C080D180F6FC89
:1019E00003C06FEF7FEF02C0692D70E042E050E06E
:1019F000A40EB51EC6010E944C0E8C015FE7F522B5
:101A000014C0F501C080D180F6FC03C06FEF7FEFFA
:101A100002C0692D70E042E050E0A40EB51EC60180
:101A20000E94410E8C0150E8F52AF3FE07C01AC04F
:101A300080E290E0B3010E94570EEA948E2D90E070
:101A400008171907A8F30EC0F601F7FC8591F7FEF9
:101A500081916F0190E0B3010E94570EE110EA946A
:101A6000015010400115110579F7EAC0943611F0C4
:101A7000993669F5F7FE08C0F50120813181428170
:101A8000538184E090E00AC0F501808191819C013E
:101A9000442737FD4095542F82E090E0A80EB91EF0
:101AA0009FE6F92257FF09C0509540953095219542
:101AB0003F4F4F4F5F4FE0E8FE2ACA01B901A10135
:101AC0002AE030E00E94830ED82ED21840C095370D
:101AD00029F41F2D1F7E2AE030E01DC01F2D197F25
:101AE0009F3661F0903720F4983509F0ACC00FC0F4
:101AF000903739F0983709F0A6C004C028E030E0EC
:101B00000AC0106114FD146020E130E004C014FD2F
:101B1000166020E132E017FF08C0F5016081718195
:101B20008281938144E050E008C0F5018081918179
:101B3000BC0180E090E042E050E0A40EB51EA1019F
:101B40000E94830ED82ED2188FE7F82EF122F6FECF
:101B50000BC05EEFF522D91438F4F4FE07C0F2FC96
:101B600005C08FEEF82202C01D2D01C0192DF4FE14
:101B70000DC0FE01ED0DF11D8081803319F499EE49
:101B8000F92208C01F5FF2FE05C003C08F2D8678C2
:101B900009F01F5F0F2DF3FC14C0F0FE0FC01E15DF
:101BA00010F09D2C0BC09D2C9E0C911A1E2D06C072
:101BB00080E290E0B3010E94570E1F5F1E15C0F334
:101BC00004C01E1510F4E11A01C0EE2404FF0FC07A
:101BD00080E390E0B3010E94570E02FF1DC001FD9B
:101BE00003C088E790E00EC088E590E00BC0802F2E
:101BF000867891F001FF02C08BE201C080E2F7FC21
:101C00008DE290E0B3010E94570E06C080E390E0A1
:101C1000B3010E94570E9A94D914C0F3DA94F101DB
:101C2000ED0DF11D808190E0B3010E94570EDD2083
:101C3000A9F706C080E290E0B3010E94570EEA9433
:101C4000EE20C1F743CEF30166817781CB012B965D
:101C5000E2E10C94FD0EF999FECF92BD81BDF89A98
:101C6000992780B50895262FF999FECF1FBA92BD06
:101C700081BD20BD0FB6F894FA9AF99A0FBE01966D
:101C80000895FC010590615070400110D8F78095CF
:101C900090958E0F9F1F0895FC0161507040019038
:101CA0000110D8F7809590958E0F9F1F08950F9380
:101CB0001F93CF93DF938C01EB018B8181FF1BC0BE
:101CC00082FF0DC02E813F818C819D8128173907AD
:101CD00064F4E881F9810193F983E88306C0E8851B
:101CE000F985802F0995892B31F48E819F8101968A
:101CF0009F838E8302C00FEF1FEFC801DF91CF914A
:101D00001F910F910895FA01AA27283051F120312F
:101D100081F1E8946F936E7F6E5F7F4F8F4F9F4F7F
:101D2000AF4FB1E03ED0B4E03CD0670F781F891FC1
:101D30009A1FA11D680F791F8A1F911DA11D6A0F8F
:101D4000711D811D911DA11D20D009F468943F9142
:101D50002AE0269F11243019305D3193DEF6CF0141
:101D60000895462F4770405D4193B3E00FD0C9F707
:101D7000F6CF462F4F70405D4A3318F0495D31FD74
:101D80004052419302D0A9F7EACFB4E0A6959795C7
:101D9000879577956795BA95C9F70097610571059D
:101DA00008959B01AC010A2E0694579547953795E7
:101DB0002795BA95C9F7620F731F841F951FA01D41
:101DC00008952F923F924F925F926F927F928F92DF
:101DD0009F92AF92BF92CF92DF92EF92FF920F93BA
:101DE0001F93CF93DF93CDB7DEB7CA1BDB0B0FB6C4
:101DF000F894DEBF0FBECDBF09942A883988488881
:101E00005F846E847D848C849B84AA84B984C88416
:101E1000DF80EE80FD800C811B81AA81B981CE0F0D
:101E2000D11D0FB6F894DEBF0FBECDBFED010895F2
:041E3000F894FFCF54
:101E340007424242424242424D6F64756C652049FA
:101E440044206368616E676564202564202D3E200C
:0A1E540025640068656C6C6F0000E7
:00000001FF
