:100000000C946C000C9494000C9494000C94940048
:100010000C9494000C9494000C9494000C94940010
:100020000C9494000C9494000C9494000C94940000
:100030000C9494000C9494000C9494000C949400F0
:100040000C94CD2C0C9494000C9431200C949400BE
:100050000C9494000C9494000C9494000C949400D0
:100060000C9494000C9494007C3C3E5E2B3D3F2FFE
:100070005B5D3B2C2A225C0000000000240027006E
:100080002A0000000000250028002B0000000000CE
:1000900023002600290004040404040404040202CA
:1000A00002020202030303030303010204081020F7
:1000B0004080010204081020010204081020000002
:1000C0000007000201000003040600000000000019
:1000D0000000D01A181DB32111241FBECFEFD8E0A5
:1000E000DEBFCDBF12E0A0E0B1E0E2E6FEE602C076
:1000F00005900D92A239B107D9F715E0A2E9B2E057
:1001000001C01D92A83CB107E1F710E0C8EDD0E0B6
:1001100004C02297FE010E941431C23DD107C9F7E5
:100120000E9428200C942F370C940000FC0160835F
:10013000418312821382148215820895FC01608328
:10014000418312821382148215820895AF92BF9266
:10015000DF92EF92FF920F931F93CF93DF93EC0107
:10016000B62E8A819B81AC81BD810097A105B10526
:1001700081F1EE80FF808DEF9FEFE80EF91E8981FF
:1001800060E00E94072EC7010E946F2DDD24D394EA
:1001900000E010E0AB2CBB248D2D90E08A219B2148
:1001A000892B19F0898161E002C0898160E00E9499
:1001B000072EC7010E946F2DDD0C0F5F1F4F083007
:1001C000110551F7898161E00E94072EC7010E9445
:1001D0006F2DDF91CF911F910F91FF90EF90DF90E6
:1001E000BF90AF9008950E94A60008952F923F926D
:1001F0004F925F926F927F928F929F92AF92BF9237
:10020000CF92DF92EF92FF920F931F93DF93CF93E2
:10021000CDB7DEB7A0970FB6F894DEBF0FBECDBF47
:100220001C016A017B01411551056105710521F42D
:1002300060E30E94A6004FC0882499245401422EF6
:1002400055246624772401E010E00C0F1D1F080DD3
:10025000191DC701B601A30192010E94C130F80126
:1002600060830894811C911CA11CB11CC701B601BC
:10027000A30192010E94C130C901DA016C017D0124
:10028000C114D104E104F104F1F681E0E82EF12C6F
:10029000EC0EFD1EE80CF91C3E010894611C711C5B
:1002A000D501C4010197A109B1096C01C818D90889
:1002B0000FC0F601EE0DFF1D60816A3010F4605D25
:1002C00001C0695CC1010E94A6000894E108F10820
:1002D0006E147F0471F7A0960FB6F894DEBF0FBEC0
:1002E000CDBFCF91DF911F910F91FF90EF90DF90E5
:1002F000CF90BF90AF909F908F907F906F905F90C6
:100300004F903F902F9008952AE00E94F6000895A4
:10031000AB0160E070E00E94840108950F931F9389
:100320008C016DE00E94A600C8016AE00E94A60050
:100330001F910F9108950F931F938C010E948401C8
:10034000C8010E948E011F910F9108950F931F9372
:100350008C010E94A600C8010E948E011F910F917E
:1003600008950F931F938C010E94A600C8010E945C
:100370008E011F910F910895EF92FF920F931F939B
:10038000CF93DF93EC017A018B0177FF0BC06DE215
:100390000E94A60010950095F094E094E11CF11CD9
:1003A000011D111DCE01B801A7012AE00E94F6002F
:1003B000DF91CF911F910F91FF90EF9008950F93D0
:1003C0001F938C010E94BC01C8010E948E011F91E5
:1003D0000F910895AB01662757FD6095762F0E9417
:1003E000BC0108950F931F938C01AB01662757FD45
:1003F0006095762F0E94BC01C8010E948E011F915A
:100400000F9108952115310521F4642F0E94A60053
:1004100008952A30310519F40E94BC0108950E9404
:10042000F60008950F931F938C010E940202C801E9
:100430000E948E011F910F9108950F931F93CF93E8
:10044000DF938C01EB0104C02196C8010E94A60035
:1004500068816623C9F7DF91CF911F910F910895AD
:100460000F931F938C010E941D02C8010E948E01F0
:100470001F910F9108950F931F938C019A01AB0167
:10048000FC01228333834483558360E472E48FE06C
:1004900090E00E94E330F80137832683818161E098
:1004A0000E94072EF801868197810E946F2D1F916F
:1004B0000F910895CF92DF92EF92FF920F931F93C7
:1004C000CF93DF937C01FC01C681D781F701808146
:1004D0000E943C2E892BD1F7F70180810E943C2E8F
:1004E000892B19F00FEF1FEF2BC09DEFC92E9FEF47
:1004F000D92ECC0EDD1EC60162E070E00E94AE3047
:10050000CB0103970E946F2D00E010E0C0E0D0E027
:10051000C6010E946F2DF70180810E943C2E0C2E97
:1005200002C0880F991F0A94E2F7082B192B219615
:10053000C830D10569F7F701868197810E946F2D38
:10054000C801DF91CF911F910F91FF90EF90DF9045
:10055000CF900895FC01673020F086E1858380E02C
:100560000895262F30E060FD02C0663019F48DB585
:100570008E7F02C08DB581608DBD8CB58C7F8CBDAA
:100580004CB522FD02C090E001C092E0369527955F
:10059000822F8170842B892B8CBD81E00895FF927E
:1005A0000F931F93CF93DF938B010E94152DEB01C7
:1005B000FF24FA94FEBC0DB407FEFDCF8EB58F3F2D
:1005C00011F481E008C00E94152D6C1B7D0B601793
:1005D000710780F380E0DF91CF911F910F91FF9021
:1005E0000895FC01848160E00E94072E0895FC01BB
:1005F000848161E00E94072E0895CF93DF93EC0180
:1006000068E572E00E94CF02882389F08DEF8EBDED
:100610000DB407FEFDCFCE0168E572E00E94CF0267
:10062000882329F0CE010E94F70281E006C080E114
:100630008D83CE010E94F70280E0DF91CF91089573
:10064000DC016EBDFA0120E030E00DB407FEFDCF05
:1006500080818EBD0DB407FEFDCF81818EBD2E5FE2
:100660003F4F329682E02030380779F70DB407FE0D
:10067000FDCF8FEF8EBD0DB407FEFDCF8FEF8EBD8A
:100680000DB407FEFDCF8FEF8EBD0DB407FEFDCF7D
:100690008EB51A968C931A978F71853011F481E07C
:1006A000089581E115968C931597CD010E94F7026C
:1006B00080E008950F931F93CF93DF93EC018B019C
:1006C00068E572E00E94CF02882339F483E18D83CC
:1006D000CE010E94F70280E005C0CE016CEFA801B8
:1006E0000E942003DF91CF911F910F910895FF92F7
:1006F0000F931F93CF93DF93EC010E94152D8B0175
:10070000FF24FA9409C00E94152D601B710B6D52D5
:10071000714010F08FE00DC0FEBC0DB407FEFDCFA0
:100720008EB58A878F3F79F38E3F11F481E006C042
:100730008DE08D83CE010E94F70280E0DF91CF91A2
:100740001F910F91FF900895CF93DF93EC018E815D
:100750008823D1F08FEF8EBD2F8138854FEF04C0F5
:100760000DB407FEFDCF4EBD2F5F3F4FC90101976E
:1007700081509240A8F338872F830DB407FEFDCF38
:10078000CE010E94F7021E82DF91CF910895FF9261
:100790000F931F938C01F62E0E94A403F801F1869B
:1007A0001F910F91FF900895DF92EF92FF920F93A8
:1007B0001F93CF93DF93EC01D62E79018A010E941B
:1007C000A403CE010E94F102CE016CE271E00E940E
:1007D000CF028D2D80648EBD0DB407FEFDCF28E1C4
:1007E00030E0D801C701022E04C0B695A7959795B1
:1007F00087950A94D2F78EBD0DB407FEFDCF285021
:1008000030408FEF283F380761F7DD2011F485E98C
:1008100006C088E0D81611F487E801C08FEF8EBDBE
:100820000DB407FEFDCF90E02FEF2EBD0DB407FEF7
:10083000FDCF8EB587FF02C09150B9F78A87DF914F
:10084000CF911F910F91FF90EF90DF9008958F92BD
:100850009F92AF92BF92CF92DF92EF92FF920F934F
:100860001F93CF93DF93EC016A017B01480159018B
:10087000411551056105710511F482E126C067E358
:1008800020E030E040E050E00E94D403CE0167E178
:10089000A50194010E94D403882311F087E015C0BC
:1008A0008B85833039F099E0CC0CDD1CEE1CFF1CED
:1008B0009A95D1F7CE0169E1A70196010E94D40370
:1008C000882311F481E006C085E08D83CE010E946B
:1008D000F70280E0DF91CF911F910F91FF90EF9091
:1008E000DF90CF90BF90AF909F908F900895CF9260
:1008F000DF92EF92FF920F931F93CF93DF93EC0160
:100900007A018B016901411551056105710511F4E9
:1009100082E137C08B85833039F029E0EE0CFF1C73
:10092000001F111F2A95D1F7CE0168E1A801970198
:100930000E94D403882311F084E023C0CE016EEF1F
:10094000A6010E9420038823E9F0CE0168E572E049
:100950000E94CF02882311F485E113C0CE016DE01F
:1009600020E030E040E050E00E94D403882341F4CE
:100970008FEF8EBD0DB407FEFDCF8EB5882379F0C5
:1009800084E18D83CE010E94F70280E0DF91CF9158
:100990001F910F91FF90EF90DF90CF900895CE01BF
:1009A0000E94F70281E0F2CF0F931F93CF93DF9362
:1009B000EC01142F052F20E030E040E050E00E94D1
:1009C000D403882319F08EE08D8326C0CE010E94C7
:1009D0007703882309F1812F902FFC019FEF9F015E
:1009E000205F3F4F9EBD0DB407FEFDCF8EB58193B6
:1009F000E217F307B9F78FEF8EBD0DB407FEFDCFF9
:100A00008EB58FEF8EBD0DB407FEFDCF8EB5CE0136
:100A10000E94F70281E004C0CE010E94F70280E04C
:100A2000DF91CF911F910F910895DF93CF93CDB7B1
:100A3000DEB760970FB6F894DEBF0FBECDBF69E09A
:100A4000AE014F5F5F4F0E94D404882329F08B854D
:100A5000829586958695817060960FB6F894DEBF74
:100A60000FBECDBFCF91DF910895EF92FF920F930C
:100A70001F93DF93CF93CDB7DEB760970FB6F8948F
:100A8000DEBF0FBECDBF8C0169E0AE014F5F5F4F8F
:100A90000E94D404882309F461C08981807C89F58F
:100AA0008F818370382F330F330F20E0888590E0DB
:100AB000880F991F880F991F282B392B89858295BC
:100AC00086958695837090E0282B392B2F5F3F4FBA
:100AD000790100E010E08E818F7090E007972A8501
:100AE0002370220F3B85331F3327331F232B820FA5
:100AF000911D04C0EE0CFF1C001F111F8A95D2F738
:100B000030C0803441F588858695869590E0A0E0D8
:100B1000B0E08C01FF24EE248A8590E0A0E0B0E0F4
:100B2000E82AF92A0A2B1B2B998580E0AA2797FD32
:100B3000A095BA2FE82AF92A0A2B1B2B0894E11C4E
:100B4000F11C011D111D3AE0EE0CFF1C001F111FCE
:100B50003A95D1F706C089E0F8018583EE24FF2499
:100B60008701B701C80160960FB6F894DEBF0FBECB
:100B7000CDBFCF91DF911F910F91FF90EF9008951E
:100B80008F929F92AF92BF92CF92DF92EF92FF929D
:100B90000F931F93CF93DF93EC015A016B0149012F
:100BA0000115110509F47BC0C801820F931F815004
:100BB000924008F06FC08E81882371F088819981FE
:100BC000AA81BB81481759076A077B0729F48F81DF
:100BD00098858816990618F5A882B982CA82DB82A0
:100BE0008B85833039F069E0AA0CBB1CCC1CDD1C62
:100BF0006A95D1F7CE0161E1A60195010E94D40367
:100C0000882319F083E08D8345C0CE010E947703CD
:100C1000882309F43FC018861F8281E08E838FEFFE
:100C20008EBD8F8198852FEF05C00DB407FEFDCFD7
:100C30002EBD019688159905C0F398878F83D8013A
:100C4000119720E030E09FEF0BC00DB407FEFDCF01
:100C50008EB5F701E20FF31F80839EBD2F5F3F4FDC
:100C60002A173B0790F30DB407FEFDCF8EB5AE0DEE
:100C7000BF1D8C932F813885200F311F38872F831C
:100C80008985882319F02050324048F0CE010E9417
:100C9000A40305C0CE010E94F70280E001C081E0FC
:100CA000DF91CF911F910F91FF90EF90DF90CF9048
:100CB000BF90AF909F908F900895EF92FF920F9307
:100CC0001F93790120E030E000E012E00E94C005AF
:100CD0001F910F91FF90EF9008958F929F92AF9286
:100CE000BF92CF92DF92EF92FF920F931F93CF9319
:100CF000DF93EC016A017B01480159010E9415054F
:100D0000882311F48BE02EC08B85833071F0E9E0ED
:100D1000CC0CDD1CEE1CFF1CEA95D1F779E0880CA9
:100D2000991CAA1CBB1C7A95D1F7CE0160E2A701E1
:100D300096010E94D403882391F4CE0161E2A501BB
:100D400094010E94D403882351F4CE0166E220E08E
:100D500030E040E050E00E94D4038823D1F08AE0E4
:100D600001C08CE08D83CE010E94F70280E004C0B8
:100D7000CE010E94F70281E0DF91CF911F910F9188
:100D8000FF90EF90DF90CF90BF90AF909F908F90AB
:100D90000895CE0160E177E20E94CF02882309F333
:100DA000E7CFBF92CF92DF92EF92FF920F931F9304
:100DB000CF93DF93EC01B62E1B8619861E821D820F
:100DC0004C830E94152D6B018C8161E00E94B42D33
:100DD000CE010E94F7028CE060E00E94B42D8BE00F
:100DE00061E00E94B42D8DE061E00E94B42D8AE0A4
:100DF00061E00E94B42D8AE061E00E94072E83E545
:100E00008CBD8DB58E7F8DBD80E09FEF9EBD0DB4F6
:100E100007FEFDCF8F5F8A30C9F7CE010E94F10235
:100E200009C00E94152D6C197D09615D774010F095
:100E300081E05EC0CE0160E020E030E040E050E0C4
:100E40000E94D403182F8A87813059F7CE0168E0B9
:100E50002AEA31E040E050E00E94D40382FF02C061
:100E60001B8711C080E02FEF2EBD0DB407FEFDCF14
:100E70009EB58F5F8430C1F79A879A3A11F082E06D
:100E800037C082E08B878B85823021F0EE24FF24EF
:100E900087010FC0E12CF12C012DF0E41F2F09C0B8
:100EA0000E94152D6C197D09615D774010F088E076
:100EB0001FC0CE0167E320E030E040E050E00E9438
:100EC000D403CE0169E2A80197010E94D4038A8766
:100ED000882331F78B85823031F5CE016AE320E03B
:100EE00030E040E050E00E94D403882339F086E0EF
:100EF0008D83CE010E94F70280E01CC08FEF8EBD73
:100F00000DB407FEFDCF8EB5807C803C11F483E0EC
:100F10008B8780E09FEF9EBD0DB407FEFDCF2EB501
:100F20008F5F8330C1F7CE010E94F702CE016B2D97
:100F30000E94AA02DF91CF911F910F91FF90EF9035
:100F4000DF90CF90BF900895CF93DF93EB01DC014A
:100F500090E020E03EE28C91803269F0283029F464
:100F6000FE01E90FF11D30839F5FFE01E90FF11DC6
:100F70008C9180839F5F2F5F11962B3061F7C90F93
:100F8000D11D1882DF91CF910895CF93DF93EC01AB
:100F9000DB0180E090E020E2FD01E80FF91F2083F3
:100FA00001968B309105C1F740E057E021C02E3209
:100FB00019F088E690E007C05A3019F148E05AE08D
:100FC00017C03217F1F0FC01019634913323C9F7B1
:100FD0005417B8F02132A8F02F3798F4822F815699
:100FE0008A3108F42052FD01E40FF11D20834F5F88
:100FF00029912223E1F690E08C91803219F091E062
:1010000001C090E0892FDF91CF9108950F931F9336
:10101000CF93DF938C01EB0109C0D801ED91FC91D6
:101020000190F081E02DC80109952196FE0164919F
:10103000662399F7DF91CF911F910F9108950F9338
:101040001F938C010E940608C8010E947B231F91F8
:101050000F9108956F927F928F929F92AF92BF925D
:10106000CF92DF92EF92FF920F931F93CF93DF9374
:10107000EC017A018B012C81222309F480C08A893A
:101080009B89AC89BD8984179507A607B70708F423
:1010900076C085C0E114F1040105110549F41D82F3
:1010A0001E821F82188619861A861B861C8665C0BA
:1010B00029853A854B855C85EA8DFB8D858590E099
:1010C0000996215030404040504039014A01082ED5
:1010D00004C096948794779467940A94D2F72F5F0C
:1010E0003F4F4F4F5F4F0894E108F1080109110984
:1010F0005701680104C0D694C794B794A7948A9501
:10110000D2F70894E11CF11C011D111DA614B704AF
:10111000C804D90428F0211531054105510549F4C9
:101120008E899F89A88DB98D8D839E83AF83B88763
:1011300016C0A618B708C808D90811C04D815E812D
:101140006F8178858A8D9B8D94010E94BE170894CB
:10115000A108B108C108D108882331F410C085E086
:10116000882E912C8C0E9D1EA114B104C104D104B3
:1011700029F7E986FA860B871C8781E001C080E0A9
:10118000DF91CF911F910F91FF90EF90DF90CF9063
:10119000BF90AF909F908F907F906F900895223076
:1011A00009F078CFE6CF6F927F928F929F92AF92A5
:1011B000BF92CF92DF92EF92FF920F931F93DF9334
:1011C000CF9300D000D0CDB7DEB76C014B013A0110
:1011D000DC015696ED90FD900D911C915997E1140C
:1011E000F1040105110509F482C05E010894A11CF7
:1011F000B11CF601828D938DB801A70195010E9463
:10120000BE17882309F473C029813A814B815C8120
:10121000D801C7010196A11DB11D281739074A073A
:101220005B0719F479018A01E4CFD6015A966D91D2
:101230007C915B97FB018789803129F088EF9FEFD4
:10124000AFEFBFE004C088EF9FEFA0E0B0E0281749
:1012500039074A075B0708F44AC0F601868997896F
:10126000A08DB18D0297A109B109FB01058404C0CD
:10127000880F991FAA1FBB1F0A94D2F726853785AE
:1012800040895189820F931FA41FB51FF4018083E9
:101290009183A283B383D6015A96ED91FC915B971B
:1012A00086859785A089B1890197A109B109248113
:1012B000820F911DA11DB11D2EEF3FEF4FEF5FEF8C
:1012C000E20EF31E041F151F058404C0EE0CFF1C64
:1012D000001F111F0A94D2F78E0D9F1DA01FB11F72
:1012E000F30180839183A283B38381E001C080E016
:1012F0000F900F900F900F90CF91DF911F910F9152
:10130000FF90EF90DF90CF90BF90AF909F908F9025
:101310007F906F900895CF93DF93EC01462F6D85FA
:101320007E858F8598890E94A215882319F420E074
:1013300030E00AC08989282F30E095E0220F331F62
:101340009A95E1F72A563D4FC901DF91CF91089553
:101350000F931F93CF93DF938C01FC01848188232B
:10136000C9F1838187FF33C0C80161E00E948B0906
:10137000EC01009779F1F8018481823040F4828990
:101380009389A489B5898C8F9D8FAE8FBF8FF8010B
:1013900086899789A08DB18D9B8F8A8FCD01AA27D1
:1013A000BB279D8B8C8BE0919202F091930230973A
:1013B00051F0BE016A5E7F4FCE0148960995888D37
:1013C000998D9B8B8A8BF80183818F7783830E9411
:1013D000431501C080E0DF91CF911F910F910895D7
:1013E000CF93DF93EC010E94A809882311F01C829F
:1013F00081E0DF91CF9108958F929F92AF92CF922B
:10140000DF92EF92FF920F931F93CF93DF934C01E4
:10141000D62EEA01122FFE2CEA2CFC0184818823AF
:1014200009F469C0F7E04C3B5F0708F464C088E04A
:101430004C33580708F05FC0222309F45CC02D30FC
:1014400008F059C0002309F456C0003208F053C018
:10145000E7E1EF1508F44FC0FBE3FC1508F44BC0BF
:10146000FA1508F448C054C0402F50E0CC5BD74078
:10147000DC2FCC27DD0F4C2B5D2B812F90E0A5E0DE
:10148000880F991FAA95E1F7482B592BAE2DB0E094
:101490002C2D30E075E0220F331F7A95E1F79F2D58
:1014A000990F990F990F80E0282B392BCD01959535
:1014B0008795282B392B6D2DD0FE02C0538B428B84
:1014C00061FF0AC0518B408B37872687A0FD02C081
:1014D00080E001C084E6858762FF04C0518F408FA1
:1014E000378B268B80919804816080939804C40187
:1014F0000E94A80901C080E0DF91CF911F910F9158
:10150000FF90EF90DF90CF90AF909F908F900895D5
:10151000C40161E00E948B09FC01009709F0A4CF8F
:10152000EACF6F927F928F929F92AF92BF92CF92AB
:10153000DF92EF92FF920F931F93DF93CF9300D030
:1015400000D0CDB7DEB77C015A016B01DC011496E7
:101550008C911497813009F08FC013968C9181FF84
:101560008BC09EC00097A105B10511F481E085C034
:10157000F7016184728483849484C701B601A50154
:101580000E942A08882309F477C0D7015A968D91C2
:101590009C915B97A114B104C104D10489F45696BF
:1015A0004D915D916D917C9159970E9431188823DE
:1015B00009F462C0F701168A178A108E118E3DC099
:1015C000D70115964D915D916D917C9118979E0173
:1015D0002F5F3F4F0E94BE17882309F44DC0D701EB
:1015E0005A96ED91FC915B9749815A816B817C8180
:1015F0008789803129F088EF9FEFAFEFBFE004C00B
:1016000088EF9FEFA0E0B0E0481759076A077B0713
:10161000A0F4CF010E943118882371F1F7014581B0
:10162000568167817085828D938D0FEF1FEF2FEFAD
:101630003FE00E9422178823F9F0D7015296AD921D
:10164000BD92CD92DC92559713968C91139780683A
:1016500013968C93C7010E94A809882369F0B601EC
:10166000A5016A147B048C049D0410F4B401A30149
:10167000C7010E942A0801C080E00F900F900F90D0
:101680000F90CF91DF911F910F91FF90EF90DF901E
:10169000CF90BF90AF909F908F907F906F90089564
:1016A000F70182899389A489B58984179507A607CC
:1016B000B70708F057CFE0CFCF93DF93EC0140E0BE
:1016C00050E060E070E00E94910A882369F0CE014A
:1016D00061E00E948B09FC01009731F085EE808368
:1016E0001C820E94431501C080E0DF91CF910895D4
:1016F0002F923F924F925F926F927F928F929F9222
:10170000AF92BF92CF92DF92EF92FF920F931F930F
:10171000CF93DF93EC012A018C81882309F4C6C0A2
:101720008B8180FFC3C0D8C025014E185F084B01D4
:1017300075E0272E312C2C0E3D1E3201B1C02985BB
:101740003A854B855C856FEFA62E61E0B62EA2220E
:10175000B3228C8179018A0199E016950795F79457
:10176000E7949A95D1F7EA8DFB8D823049F4428D4A
:10177000538D648D758D4E0D5F1D601F711F3FC0B1
:10178000D480DA94DE20A114B104D9F4DD20C9F4A8
:10179000211531054105510549F48E899F89A88D90
:1017A000B98D8D839E83AF83B8870BC04D815E81D9
:1017B0006F817885CF0191010E94BE17882309F4BB
:1017C00075C0EA8DFB8D4D815E816F8178854250B9
:1017D000504060407040058404C0440F551F661F90
:1017E000771F0A94D2F786859785A089B189480F1B
:1017F000591F6A1F7B1F4D0D511D611D711D80E01A
:1018000092E08A199B0963018615970508F46C011B
:101810008B8186FD06C080E0C81682E0D80609F0FC
:1018200073C080910A0190910B01A0910C01B091BD
:101830000D01481759076A077B0709F465C08091B5
:101840009604909197049501860174010E94C00549
:10185000882361F18C0C9D1C12C095012A563D4FC6
:10186000A9014C0D5D1DD401F90102C081918D9338
:10187000E417F507D9F7E21BF30B8E0E9F1E9601B6
:1018800040E050E089859A85AB85BC85820F931F27
:10189000A41FB51F89879A87AB87BC876C187D0802
:1018A0006114710409F04BCFA20102C04FEF5FEF4A
:1018B000CA01DF91CF911F910F91FF90EF90DF90C0
:1018C000CF90BF90AF909F908F907F906F905F90E0
:1018D0004F903F902F900895AA88BB88CC88DD88D0
:1018E000E984FA840B851C859A0140E050E0D6011A
:1018F000C5018E199F09A00BB10B82179307A4078E
:10190000B50708F411CF13CFCB01BA0140E00E9414
:10191000A215882309F0A1CFC9CFCF92DF92EF9211
:10192000FF920F931F93DF93CF930F92CDB7DEB744
:101930006C01FC018481823070F0E184F2840385C3
:101940001485C601BE016F5F7F4F41E050E00E94E9
:10195000780B019769F020E030E0C9010F90CF913A
:10196000DF911F910F91FF90EF90DF90CF9008953E
:10197000F60181859285A385B4854F96A11DB11D81
:1019800081879287A387B487F5E016950795F7942A
:10199000E794FA95D1F78E2D8F70282F30E0E5E08F
:1019A000220F331FEA95E1F72A563D4FD6CFCF934A
:1019B000DF93EC018C81843079F51D821E821F82B9
:1019C000188619861A861B861C8610C0CE010E94B6
:1019D0008D0CFC01009701F180818823A1F0853EE8
:1019E00029F08E3219F0838583FF16C029853A8548
:1019F0004B855C858A899B89AC89BD892817390705
:101A00004A075B0718F381E08C838B8182608B83AC
:101A1000CE010E945C0B01C080E0DF91CF91089560
:101A20000F931F93CF93DF938C01EB01FC01848113
:101A3000823010F181859285A385B4858F71907075
:101A4000A070B0700097A105B105B1F40AC08881FB
:101A50008823A1F0853E29F08E3219F08B8583FF13
:101A60000EC0C801BE0140E250E00E94780B982FE2
:101A7000803269F387FF02C09FEF01C090E0892F99
:101A8000DF91CF911F910F910895DF93CF9300D0F5
:101A90000F92CDB7DEB7282F6AE00E94A230805D9A
:101AA0008983822F0E94A230905D9A831B8287EAED
:101AB00095E0BE016F5F7F4F0E9424220F900F9030
:101AC0000F90CF91DF910895EF92FF920F931F93A4
:101AD0008C01812F8695869586950E94450DB7EAE3
:101AE000EB2EB5E0FB2EC7016AE340E050E00E9418
:101AF0006923C801A5E096958795AA95E1F78F73AC
:101B00000E94450DC7016AE340E050E00E9469234E
:101B10000F711070802F880F0E94450D1F910F913B
:101B2000FF90EF900895EF92FF920F931F937C0127
:101B300007EA15E0BC01672F772766956454784F54
:101B4000C8014AE050E00E94FD22C8016DE240E079
:101B500050E00E946923C70125E0969587952A9554
:101B6000E1F78F700E94450DC8016DE240E050E042
:101B70000E9469238E2D8F710E94450D1F910F9138
:101B8000FF90EF900895DF92EF92FF920F931F93D3
:101B9000CF93DF937C01D62EEC0110E000E088812A
:101BA000803291F0083041F487EA95E06EE240E03F
:101BB00050E00E9469231F5F87EA95E0688140E05A
:101BC00050E00E940E231F5F0F5F21960B3039F704
:101BD000F70183858871803161F487EA95E06FE2CF
:101BE00003C087EA95E060E240E050E00E9469238C
:101BF0001F5F1D15B0F3DF91CF911F910F91FF90E3
:101C0000EF90DF9008950F931F93CF93DF93EC0134
:101C10008B018C81882309F041C0FB0187898031C9
:101C2000B1F482E08C831E8A1F8A188E198E808DF3
:101C3000918DA0E0B0E045E0880F991FAA1FBB1F5F
:101C40004A95D1F78A8B9B8BAC8BBD8B15C08032AC
:101C500029F583E08C83FB01428D538D648D758D56
:101C60004E8B5F8B688F798F9E012E5E3F4FC80130
:101C70000E948A18882391F01B8F0A8F81E08B8342
:101C80001D821E821F82188619861A861B861C8654
:101C90001D861E861F86188A198A01C080E0DF9182
:101CA000CF911F910F9108951F93CF93DF93EC0174
:101CB000142FE62FF0E075E0EE0FFF1F7A95E1F7A5
:101CC000EA56FD4F8385817121F0842F827409F0DB
:101CD00054C0698B80910A0190910B01A0910C0175
:101CE000B0910D018D879E87AF87B88B84899589C8
:101CF000A0E0B0E0BC0155274427828D938DA0E081
:101D0000B0E0482B592B6A2B7B2B4E8B5F8B688F57
:101D1000798F838590E088719070009751F4848D5D
:101D2000958DA68DB78D8A8B9B8BAC8BBD8B81E0FF
:101D30000CC0409711F59E012E5E3F4F8A8D9B8D02
:101D40000E948A188823C9F084E08C83812F8F70C9
:101D50008B831D821E821F82188619861A861B8617
:101D60001C8616FD02C081E009C0CE0140E050E0B3
:101D700060E070E00E94910A01C080E0DF91CF91A5
:101D80001F910895DF92EF92FF920F931F93CF93CD
:101D9000DF938C01EB017A01D22EFC018481882330
:101DA00041F5822F8073803321F18A8D9B8D938F33
:101DB000828FE5E0440F551FEA95E1F760E070E09F
:101DC000CE010E942A088823A1F0CE010E948D0C2A
:101DD000FC01009771F08081882359F0853E49F01D
:101DE0008E3239F06E2D6F70C8014D2D0E94540E49
:101DF00001C080E0DF91CF911F910F91FF90EF9094
:101E0000DF9008958F929F92AF92BF92CF92DF9210
:101E1000EF92FF920F931F93DF93CF93CDB7DEB76F
:101E20006C970FB6F894DEBF0FBECDBF8C01FC01DE
:101E300015821682178210861186128613861486E2
:101E4000B4E08B2EB1E09B2E5E010894A11CB11C66
:101E500053C09A8289821D82C8010E948D0CFC01A8
:101E6000009709F463C08081882309F454C0853E3B
:101E700009F442C08E3209F43FC0838583FD3CC023
:101E8000A7019601A5E05695479537952795AA9500
:101E9000D1F77901C501B801A90121E00E94C20E64
:101EA000882309F443C08D81843021F4C5010E9448
:101EB000020F06C08C8182608C83C5010E945C0B7E
:101EC0008823A1F10894E11CF11CF5E0EE0CFF1C45
:101ED000FA95E1F7A70160E070E0F801818592854D
:101EE000A385B48584179507A607B70729F0C8010D
:101EF0000E942A088823D1F0F801C184D284E384A7
:101F0000F48482899389A489B589C816D906EA061A
:101F1000FB0608F49ECFF80184818250823010F4D1
:101F200081E005C0C8010E94D70C01C080E06C961A
:101F30000FB6F894DEBF0FBECDBFCF91DF911F91DA
:101F40000F91FF90EF90DF90CF90BF90AF909F9058
:101F50008F9008950F931F93CF93DF93EC01162F6B
:101F6000072F0E94A809882399F0CE0160E00E9403
:101F70008B09AC01009761F0812F902F9C01D90152
:101F8000FA0180E201900D928150E1F781E001C0F9
:101F900080E0DF91CF911F910F9108952F923F9292
:101FA0004F925F926F927F928F929F92AF92BF9269
:101FB000CF92DF92EF92FF920F931F93DF93CF9315
:101FC000CDB7DEB76E970FB6F894DEBF0FBECDBFAC
:101FD0006C016D8FE42EFC0115821682178210862B
:101FE0001186128613861486862F90E063E0462EB3
:101FF000512C4822592251E0652E712C68227922F9
:1020000044E0842E912C882299221E010894211CE0
:10201000311C2E2D2E5F2E8F32E0A32EB12CA82244
:10202000B92289C0F8018081882309F48BC0853EDC
:1020300009F481C08E3209F47EC0838583FD7BC0A4
:10204000FF2408C087EA95E060E240E050E00E948B
:102050006923F394FE14B1F74114510411F460E0C4
:1020600001C06EE0C8010E94C30D6114710489F0C3
:10207000F801808D918D0E94930D87EA95E060E2D2
:1020800040E050E00E946923F801868997890E9408
:10209000640DF801838588718031A9F0A114B10421
:1020A00091F087EA95E060E240E050E00E94692309
:1020B000F801448D558D668D778D87EA95E02AE08D
:1020C00030E00E94EE2287EA95E00E947B23811493
:1020D000910489F1F80183858871803161F5F601F9
:1020E00081859285A385B48525E0B695A7959795BA
:1020F00087952A95D1F78C0184E091E09A838983B2
:102100001D82A80141505040C101B60121E00E944A
:10211000C20E882329F0C1016D8D4E8D0E94CE0F15
:1021200085E0000F111F8A95E1F7A80160E070E0DB
:10213000C6010E942A08C6010E948D0C8C010097DE
:1021400009F070CF6E960FB6F894DEBF0FBECDBF0C
:10215000CF91DF911F910F91FF90EF90DF90CF9083
:10216000BF90AF909F908F907F906F905F904F90B7
:102170003F902F900895CF93DF93EC019C012B5F4C
:102180003F4F8A8D9B8D41E050E060E070E00E94FF
:10219000F9188823A1F08E899F89A88DB98D0097A1
:1021A000A105B10559F48D819E81AF81B8858E8BD3
:1021B0009F8BA88FB98F8B8180688B8381E0DF91A3
:1021C000CF9108952F923F924F925F927F928F927C
:1021D0009F92AF92BF92CF92DF92EF92FF920F93B6
:1021E0001F93DF93CF9300D000D000D0CDB7DEB7E0
:1021F0006C01162F072F5E834D83DC0114968C91A2
:102200001497813009F075C113968C9181FF71C1CB
:102210008FC1F601428953896489758981859285C8
:10222000A385B48584179507A607B70731F0C601C3
:102230000E942A08882309F45CC1812F902F9C01F9
:1022400029012D803E8019C1D6015A96ED91FC914D
:102250005B97DA01C90119E0B695A795979587951F
:102260001A95D1F774807A9478227FEF872E71E0E7
:10227000972E82229322772009F050C08114910476
:1022800009F04CC0D60115964D915D916D917C91F0
:102290001897411551056105710581F456968D9188
:1022A0009D910D90BC91A02D0097A105B10559F10C
:1022B000F60185839683A783B08730C0CF019E0146
:1022C0002F5F3F4F0E94BE17882319F440E050E073
:1022D00016C129813A814B815C81D6015A96ED91D4
:1022E000FC915B978789803129F088EF9FEFAFEFF2
:1022F000BFE004C088EF9FEFA0E0B0E028173907E7
:102300004A075B0730F0C6010E94BB10882331F4F6
:10231000F0C0F601258336834783508780E092E042
:102320008819990951018215930508F45C01D601B9
:102330005A96ED91FC915B971596ED90FD900D915D
:102340001C9118978EEF9FEFAFEFBFEFE80EF91ECD
:102350000A1F1B1F058404C0EE0CFF1C001F111F69
:102360000A94D2F786859785A089B189E80EF91E6F
:102370000A1F1B1FE70CF11C011D111D90E0A9167F
:1023800092E0B90651F580910A0190910B01A0915C
:102390000C01B0910D018E159F05A007B10761F4E6
:1023A0008FEF9FEFAFEFBFEF80930A0190930B0188
:1023B000A0930C01B0930D01809196049091970425
:1023C000B801A70192010E947704882309F491C003
:1023D000A0E0B2E04A0E5B1E3EC08114910409F5F4
:1023E000F601218532854385548582899389A489A4
:1023F000B589281739074A075B0798F00E944315EB
:10240000882309F476C0E0920A01F0920B01009350
:102410000C0110930D0180919804816080939804C1
:1024200008C0C801B70141E00E94A215882309F441
:1024300060C094012A563D4FA9014A0D5B1DD2018F
:10244000F90102C08D918193E417F507D9F7E21BDA
:10245000F30B4E0E5F1E2A183B08950140E050E03A
:10246000F60181859285A385B485820F931FA41FF1
:10247000B51F81879287A387B487D60119962D91BE
:102480003D914D915C911C972114310409F0DCCEF3
:1024900052968D919D910D90BC91A02D821793071E
:1024A000A407B50748F4F601228B338B448B558B78
:1024B00083818068838311C08091920290919302FE
:1024C000892B59F08D819E81892B39F0D601139685
:1024D0008C911397806813968C93F601838183FF08
:1024E00005C0C6010E94A809882319F04D815E81AC
:1024F00006C081E0D60112968C934FEF5FEFCA01C0
:1025000026960FB6F894DEBF0FBECDBFCF91DF91F8
:102510001F910F91FF90EF90DF90CF90BF90AF9001
:102520009F908F907F905F904F903F902F90089555
:1025300082FD6FCE82CEDB010D900020E9F711976E
:10254000A61BB70BAD010E94E2100895DF93CF9355
:102550000F92CDB7DEB76983BE016F5F7F4F41E059
:1025600050E00E94E2100F90CF91DF910895DF922A
:10257000EF92FF920F931F93CF93DF93EC010E9492
:10258000BB10882309F44EC0EA8DFB8DED80FE80E0
:102590000F8118858EEF9FEFAFEFBFEFE80EF91EAA
:1025A0000A1F1B1F058404C0EE0CFF1C001F111F17
:1025B0000A94D2F786859785A089B189E80EF91E1D
:1025C0000A1F1B1FD4800894E108F10801091109B2
:1025D0000BC0C801B7016D0D711D811D911D0E94B9
:1025E0007E158823F9F0DA94DD2099F7EA8DFB8DCA
:1025F00020E032E040E050E0058404C0220F331FA9
:10260000441F551F0A94D2F78A899B89AC89BD89DA
:10261000820F931FA41FB51F8A8B9B8BAC8BBD8B26
:1026200081E001C080E0DF91CF911F910F91FF9079
:10263000EF90DF9008956F927F928F929F92AF926A
:10264000BF92CF92DF92EF92FF920F931F93DF938F
:10265000CF93CDB7DEB72B970FB6F894DEBF0FBE82
:10266000CDBF5C016B01822EDC0114968C91882316
:1026700009F0D2C0CA018E010F5F1F4FB8010E943E
:10268000C507882309F4C8C0F601828D938DD50152
:102690005B969C938E935A971582168217821086AA
:1026A000D60119961D921D921D921C921C97992479
:1026B000380141C0C6010E948D0CFC01009709F44D
:1026C000ABC085E016950795F794E7948A95D1F706
:1026D0001E2D1F708081882311F0853ED1F4992032
:1026E00091F4D50151961C93519720910A01309194
:1026F0000B0140910C0150910D011D962D933D93BE
:102700004D935C9350978081882399F499249394F6
:1027100021C0C301BF014BE050E00E942A33009763
:1027200051F4882D8073803309F476C0C501612F80
:102730006FC099249394F601E184F2840385148593
:1027400082899389A489B589E816F9060A071B07C7
:1027500008F4B0CF882D8271823109F05DC09920D4
:1027600041F0C50161E00E948B098C01009789F45A
:1027700053C0D60114968C91823009F44DC0C60125
:102780000E94B712882309F447C0F501118A06E9AF
:1027900012E080E2D8011D928A95E9F7D801FE0186
:1027A00031968BE001900D928150E1F7E091920219
:1027B000F0919302309739F0B801625F7F4FC80102
:1027C0004096099509C081E298E2F801918B808BCF
:1027D00080E098E097878687D80150968D919C91EC
:1027E000519753969C938E93529759969C938E93A0
:1027F00058971E968D919C911F9757969C938E93F8
:1028000056970E944315882339F0C501F501618967
:10281000482D0E94540E01C080E02B960FB6F8940C
:10282000DEBF0FBECDBFCF91DF911F910F91FF9003
:10283000EF90DF90CF90BF90AF909F908F907F9060
:102840006F9008950F931F93DF93CF93CDB7DEB7AB
:102850006C970FB6F894DEBF0FBECDBF9C01AB01E5
:1028600084E091E09A8389831D828E010F5F1F4F60
:10287000C801B90122E00E941B13882319F0C80186
:102880000E945C0B6C960FB6F894DEBF0FBECDBFF6
:10289000CF91DF911F910F910895EF92FF920F93C7
:1028A0001F93CF93DF93EC0178018901E114F104C8
:1028B0000105110591F123E30E941B13882369F19F
:1028C000EA8DFB8DB801A701415050406040704037
:1028D000858590E0099604C076956795579547954C
:1028E0008A95D2F74F5F5F4F6F4F7F4F9E012A5EF1
:1028F0003F4FCF010E94F918882321F4CE010E9496
:102900005C0B0BC0EA8AFB8A0C8B1D8B8B81806869
:102910008B83CE010E94A80901C080E0DF91CF9196
:102920001F910F91FF90EF900895EF92FF920F93F8
:102930001F93DF93CF93CDB7DEB7A0970FB6F89470
:10294000DEBF0FBECDBF8C017B0123E30E941B13B2
:10295000882309F48AC081E0D80113968C931397D9
:1029600084E014968C93C8010E94B712882309F45E
:102970007CC0C8010E94A809882309F476C0C80158
:1029800061E00E948B09FC01009709F46EC080E1B0
:102990008387DE01119680E201900D928150E1F76C
:1029A000FE01329620E2CE010C962193E817F9073A
:1029B000E1F78EE28983D8015A96ED91FC915B97FD
:1029C00056966D917D918D919C9159976250704072
:1029D00080409040058404C0660F771F881F991FB0
:1029E0000A94D2F72685378540895189620F731F73
:1029F000841F951F41E00E94A2158823B1F1A6E92A
:102A0000B2E0FE01319680E201900D928150E1F733
:102A10008EE28A83F70184818250823028F41C8EF2
:102A20001B8E1E8A1D8A0CC0F70186899789A08D8E
:102A3000B18D9C8F8B8FCD01AA27BB279E8B8D8B51
:102A4000A6EBB2E0FE01319680E201900D9281503A
:102A5000E1F780E490E0A0E0B0E0F80181879287A0
:102A6000A387B4870E94431501C080E0A0960FB6EB
:102A7000F894DEBF0FBECDBFCF91DF911F910F91B4
:102A8000FF90EF90089580919804882399F14091E8
:102A90000A0150910B0160910C0170910D01809120
:102AA00096049091970426E932E00E9477048823E7
:102AB00019F14091990450919A0460919B0470918E
:102AC0009C04411551056105710591F080919604B2
:102AD0009091970426E932E00E947704882361F000
:102AE0001092990410929A0410929B0410929C04E4
:102AF0001092980481E0089580E00895EF92FF928B
:102B00000F931F937B018C010E9443158823A9F02A
:102B1000E6E9F2E0119284E0E639F807D9F7E092AD
:102B20000A01F0920B0100930C0110930D018091AA
:102B3000980481608093980481E01F910F91FF9029
:102B4000EF900895DF92EF92FF920F931F937B0116
:102B50008C01D42E80910A0190910B01A0910C015F
:102B6000B0910D018E159F05A007B107C1F00E941D
:102B700043158823D9F08091960490919704B80169
:102B8000A70126E932E00E945D06882379F0E092F1
:102B90000A01F0920B0100930C0110930D0180913A
:102BA00098048D298093980481E001C080E01F91F2
:102BB0000F91FF90EF90DF9008958F929F92AF92C8
:102BC000BF92CF92DF92EF92FF920F931F93CF931A
:102BD000DF936C01142F7093970460939604442341
:102BE00021F488249924540140C0453008F01CC1C8
:102BF00060E070E080E090E040E00E94A215882351
:102C000009F412C1C12FD0E02197FE0174E0EE0F4C
:102C1000FF1F7A95E1F7EA56FD4FE254FE4F80819F
:102C2000EE5BF14090E08F779070892B09F0FCC04B
:102C3000E653FE4F80819181A281B3818436910554
:102C4000A105B10508F4F0C064E0CC0FDD1F6A9562
:102C5000E1F7C45ADB4F88809980AA80BB80811439
:102C60009104A104B10409F4DFC0C501B40140E03E
:102C70000E94A215882309F4D7C08091A1029091E7
:102C8000A2028050924009F0CFC02091A6022223D8
:102C900009F4CAC08091A4029091A502892B09F47D
:102CA000C3C08091A302882309F4BEC0F601228B21
:102CB0008091A3028483158661E070E007C04F5FB6
:102CC000F60145874150483008F0AEC0F601458511
:102CD000848190E09B01042E02C0220F331F0A94CE
:102CE000E2F78217930759F72091AC023091AD02B9
:102CF0002115310519F040E050E008C02091BA02DA
:102D00003091BB024091BC025091BD02F601258377
:102D1000368347835087E090A402F090A50200E03C
:102D200010E0E80CF91C0A1D1B1DE38AF48A058BD0
:102D3000168B8091A7029091A802918F808F60914D
:102D4000A60270E080E090E00E9483306E0D7F1D4F
:102D5000801F911FF601628F738F848F958F209152
:102D6000A7023091A80255E0220F331F5A95E1F7D0
:102D700021503E4F232F3327269540E050E0260F69
:102D8000371F481F591F26873787408B518B8091EB
:102D9000A9029091AA02009719F0A0E0B0E008C043
:102DA0008091B6029091B702A091B802B091B90299
:102DB00085017401E21AF30A040B150BA8019701AF
:102DC000280F391F4A1F5B1FF601058404C0569562
:102DD0004795379527950A94D2F7218732874387FD
:102DE0005487253FFFE03F07F0E04F07F0E05F0723
:102DF00010F48CE006C0255F3F4F4040504028F45F
:102E000080E1F601878B81E010C08091C202909131
:102E1000C302A091C402B091C502F601828F938FC4
:102E2000A48FB58F80E2EECF80E0DF91CF911F912C
:102E30000F91FF90EF90DF90CF90BF90AF909F9059
:102E40008F9008954F925F926F927F928F929F9290
:102E5000AF92BF92CF92DF92EF92FF920F931F93A8
:102E6000CF93DF93EC016A017B01280139014230E5
:102E700051056105710508F46FC089859A85AB8598
:102E8000BC850196A11DB11D84179507A607B7073C
:102E900008F462C02B893C894D895E898F89803115
:102EA00029F499278F2D7E2D6D2D09C0C701B601FC
:102EB00017E096958795779567951A95D1F74B0109
:102EC0005C01820E931EA41EB51E80910A01909192
:102ED0000B01A0910C01B0910D0188169906AA066C
:102EE000BB0639F0C501B40140E00E94A215882359
:102EF00099F18F89803149F4F601F070EE0FFF1FD0
:102F0000EA56FD4F518240820DC0F601EF77F07016
:102F1000EE0FFF1FEE0FFF1FEA56FD4F408251825A
:102F200062827382809198048160809398048A8978
:102F3000823080F08D819E81AF81B885880E991E88
:102F4000AA1EBB1E8092990490929A04A0929B04A0
:102F5000B0929C0481E001C080E0DF91CF911F918D
:102F60000F91FF90EF90DF90CF90BF90AF909F9028
:102F70008F907F906F905F904F900895CF92DF92E7
:102F8000EF92FF920F931F93CF93DF93EC017A019F
:102F90008B01690189859A85AB85BC850196A11D48
:102FA000B11D84179507A607B70708F450C02B89F1
:102FB0003C894D895E898F89803129F49927812F39
:102FC000702F6F2D09C0C801B701E7E0969587956E
:102FD00077956795EA95D1F7260F371F481F591F38
:102FE00080910A0190910B01A0910C01B0910D010B
:102FF000281739074A075B0739F0CA01B90140E0D1
:103000000E94A215882319F18F89803159F4F701A4
:10301000F070EE0FFF1FEA56FD4F80819181A0E016
:10302000B0E00EC0F701EF77F070EE0FFF1FEE0F6C
:10303000FF1FEA56FD4F80819181A281B381BF704D
:10304000F60180839183A283B38381E001C080E095
:10305000DF91CF911F910F91FF90EF90DF90CF9074
:103060000895AF92BF92CF92DF92EF92FF920F93AB
:103070001F93DF93CF9300D000D0CDB7DEB76C01A4
:103080007A018B0182E090E0A0E0B0E0F60180835D
:103090009183A283B3835E010894A11CB11CC60175
:1030A000B801A70195010E94BE17882319F1C60136
:1030B000B801A70100E010E020E030E00E942217F4
:1030C0008823C1F0E980FA800B811C81F601878991
:1030D000803129F088EF9FEFAFEFBFE004C088EFA9
:1030E0009FEFA0E0B0E0E816F9060A071B07B8F268
:1030F00081E001C080E00F900F900F900F90CF9172
:10310000DF911F910F91FF90EF90DF90CF90BF90D4
:10311000AF9008954F925F926F927F928F929F929D
:10312000AF92BF92CF92DF92EF92FF920F931F93D5
:10313000DF93CF9300D000D0CDB7DEB76C014983C9
:103140005A836B837C833901EE24FF2487012E018F
:103150000894411C511C812CA2E09A2EA12CB12C68
:1031600049815A816B817C81C60192010E94BE1700
:10317000882351F1D501C401F601058404C0880FEC
:10318000991FAA1FBB1F0A94D2F7E80EF91E0A1F47
:103190001B1F29813A814B815C818789803129F00D
:1031A00088EF9FEFAFEFBFE004C088EF9FEFA0E094
:1031B000B0E0281739074A075B0790F2F301E08275
:1031C000F1820283138381E00F900F900F900F9094
:1031D000CF91DF911F910F91FF90EF90DF90CF90F3
:1031E000BF90AF909F908F907F906F905F904F9027
:1031F00008952F923F924F925F926F927F928F929B
:103200009F92AF92BF92CF92DF92EF92FF920F9375
:103210001F93DF93CF93CDB7DEB72F970FB6F894F8
:10322000DEBF0FBECDBF1C014A875B876C877D87E1
:103230003F872E87D9010D911D912D913C9101154C
:1032400011052105310549F0480159010894811CF7
:10325000911CA11CB11C198610C0FC0180809180BA
:10326000A280B38019868A859B85AC85BD85019730
:10327000A105B10511F491E09987D10119968D91BD
:103280009D910D90BC91A02D0196A11DB11D8D8326
:103290009E83AF83B88775016401442455243201AD
:1032A0008E010F5F1F4FF10181859285A385B48543
:1032B000481659066A067B0608F090C08D819E81EB
:1032C000AF81B8858C159D05AE05BF0550F482E031
:1032D000882E912CA12CB12CB2E0CB2ED12CE12C3C
:1032E000F12CC101B701A60198010E94BE178823E5
:1032F00009F474C089819A81AB81BC81A7019601D0
:103300002F5F3F4F4F4F5F4F0097A105B10519F059
:1033100049015A010DC0281939094A095B098A85F2
:103320009B85AC85BD85281739074A075B0759F08F
:103330000894411C511C611C711C0894C11CD11CB7
:10334000E11CF11CB0CFC101A601B7010FEF1FEFC7
:103350002FEF3FE00E942217882399F43FC02601F7
:10336000370108944108510861087108C101B3018F
:10337000A201970186010E942217882379F1730127
:1033800062018C149D04AE04BF0448F3AE85BF8572
:103390004D915D916D917C914115510561057105CE
:1033A00039F0C101950184010E9422178823B1F0F0
:1033B000EE85FF8580829182A282B382F985FF2308
:1033C00059F00894811C911CA11CB11CD1018D9253
:1033D0009D92AD92BC92139781E001C080E02F9640
:1033E0000FB6F894DEBF0FBECDBFCF91DF911F9116
:1033F0000F91FF90EF90DF90CF90BF90AF909F9094
:103400008F907F906F905F904F903F902F90089596
:103410002091F5043091F6048091EC049091ED0434
:10342000281B390BC90108956091EC047091ED04DB
:103430008091EE049091EF0408956091F5047091ED
:10344000F6048091F7049091F80408958091E704C0
:10345000811181E0089583EE94E00E94F0090895BF
:1034600083EE94E00E942A08089583EE94E00E947F
:10347000A8090895DF93CF930F92CDB7DEB783EEFF
:1034800094E0BE016F5F7F4F41E050E00E94780BF7
:10349000019719F02FEF3FEF03C08981282F30E00B
:1034A000C9010F90CF91DF9108950F931F93DF9380
:1034B000CF930F92CDB7DEB783EE94E0BE016F5F7E
:1034C0007F4F41E050E00E94780B019719F00FEF19
:1034D0001FEF02C08981082F4091EC045091ED0448
:1034E0006091EE047091EF04415050406040704094
:1034F00083EE94E00E942A08802F90E00F90CF91F5
:10350000DF911F910F91089583EE94E00E94E210E5
:10351000089583EE94E00E949B12089583EE94E058
:103520000E94A61208950F931F93CF93DF938C01EF
:10353000FB01C081D181FC01EC0FFD1F80818F3226
:1035400009F4219698012C0F3D1FA0E0B0E00BC0BC
:10355000FA01EA0FFB1F8083119621962F5F3F4FE0
:10356000AC30B10531F0F90180818F3211F0882340
:1035700079F7A40FB51F1C92F801EC0FFD1F808195
:103580008F3209F42196FB01D183C083C00FD11F74
:103590008881811181E0DF91CF911F910F91089572
:1035A0001092A2041092A3041092A6041092A804F0
:1035B00082E090E0A0E0B0E08093A9049093AA0498
:1035C000A093AB04B093AC041092C00484E091E0EB
:1035D0009093C8048093C7041092CB049093E404A2
:1035E0008093E3041092E70408950F931F93CF9301
:1035F000DF93EC01462F61E00E94D1068823D1F0D1
:103600008E01045F1F4FC801BE0141E00E94DD151D
:10361000882339F4C801BE0140E00E94DD158823EB
:1036200049F0CE018A96B8010E94030E882319F052
:1036300081E001C080E0DF91CF911F910F9108954B
:103640000F931F93DF93CF93CDB7DEB76C970FB671
:10365000F894DEBF0FBECDBF9C01FB01442311F4E3
:1036600081E013C084E091E09A8389831D828E01FA
:103670000F5F1F4FC801B901AF0121E00E941B136A
:10368000882319F0C8010E94D70C6C960FB6F894E5
:10369000DEBF0FBECDBFCF91DF911F910F91089577
:1036A000442311F481E008950E9422140895EF92BA
:1036B000FF920F931F93CF93DF93FC01DB01442311
:1036C00011F481E01FC0E90186E4E82EF12CE20E3E
:1036D000F31E89010E591F4FC701BF01AD01F8014B
:1036E00020810E941B13F801808191814B9749F43E
:1036F000C85ADF4F488159816A817B81C7010E9486
:103700002A0880E0DF91CF911F910F91FF90EF90F9
:103710000895EF92FF921F93DF93CF93CDB7DEB75B
:103720006C970FB6F894DEBF0FBECDBF9C01AB0106
:1037300084E091E09A8389831D827E010894E11CD4
:10374000F11CC701B90121E00E941B13182F882327
:1037500019F0C7010E94F009812F6C960FB6F894FA
:10376000DEBF0FBECDBFCF91DF911F91FF90EF90D5
:103770000895EF92FF920F931F93DF93CF93CDB7EE
:10378000DEB76C970FB6F894DEBF0FBECDBF8C01CD
:103790007B0184E091E09A8389831D82C8010E94A5
:1037A000891B882331F4CE010196B801A7010E943C
:1037B00095146C960FB6F894DEBF0FBECDBFCF91B7
:1037C000DF911F910F91FF90EF9008952F923F92FC
:1037D0004F925F926F927F928F929F92BF92CF9201
:1037E000DF92EF92FF920F931F93DF93CF93CDB7AA
:1037F000DEB7C754D0400FB6F894DEBF0FBECDBFC2
:103800001C017B012A01390184E091E0998B888BAE
:103810001C8A9DA78CA718AA1A8219828B0120E105
:10382000C22ED12CCC0EDD1E93E0892E912C8C0E55
:103830009D1E03C0C80186016C01C101BE016F5FFE
:103840007F4FA4010E94931AB82E40E0882309F408
:1038500041E0C801B4019301F2010995882339F4CC
:103860000E151F0519F1C8010E94F0091FC0BB20E9
:10387000A9F0C601B801A40121E00E941B13B82ED3
:103880000E151F0519F0C8010E94F009BB2071F048
:103890000E151F0579F6CE018C96CDCF0E151F059E
:1038A00019F0C8010E94F00981E001C080E0C95B05
:1038B000DF4F0FB6F894DEBF0FBECDBFCF91DF91C3
:1038C0001F910F91FF90EF90DF90CF90BF909F904E
:1038D0008F907F906F905F904F903F902F900895C2
:1038E0009B01BC01665D7F4FC90140E55BE120E0C3
:1038F00030E00E94E61B08959B01BC01665D7F4F8E
:10390000C90140E25BE120E030E00E94E61B08953F
:103910009B01BC01665D7F4FC90149EB5BE120E083
:1039200030E00E94E61B08959B01BC01665D7F4F5D
:10393000C90149E85BE120E030E00E94E61B089500
:103940000F931F938C01DB01CA01FB01EE59FF4F5E
:1039500020831182665D7F4F47E55BE19D010E94F8
:10396000E61B82E191E0F80191838083C8011F91F9
:103970000F9108950F931F93DF93CF9300D000D042
:1039800000D0CDB7DEB78C01FE01319686E0DF01B5
:103990001D928A95E9F78AEA89838EE08A836B8390
:1039A0004D832E8320E030E0AF012330310561F0FC
:1039B000F801E20FF31FDA01A20FB31F90818C917F
:1039C000981711F080E006C02F5F3F4F2630310579
:1039D00061F781E026960FB6F894DEBF0FBECDBF2B
:1039E000CF91DF911F910F910895AC0120E030E05D
:1039F000FA01E20FF31FD901A75CBD4F90818C91B2
:103A0000981711F080E008952F5F3F4F2630310561
:103A100079F781E00895FC0180818A3A11F020E075
:103A200005C020E081818A3009F421E0822F0895C9
:103A300087E095E062E043E00E949E0082E191E031
:103A400090932205809321050895EF920F93DF93C1
:103A5000CF9300D000D000D0CDB7DEB7FE013196B5
:103A600096E0DF011D929A95E9F789836A834B837B
:103A70002C830D83EE8287EA95E0BF0146E050E09B
:103A80000E94052226960FB6F894DEBF0FBECDBF6A
:103A9000CF91DF910F91EF900895EF920F93482F00
:103AA0008AEA64E020E000E0EE240E94251D0F91E8
:103AB000EF900895EF920F93982F262F042F8AEA04
:103AC00065E0492FEE240E94251D0F91EF90089587
:103AD000EF920F93282F062F8AEA66E048E0EE2443
:103AE0000E94251D0F91EF900895EF920F93282FBC
:103AF000062FE42E8AEA61E040E00E94251D0F9126
:103B0000EF900895EF920F93982F362F042FE22E07
:103B10008AEA6EE0492F232F0E94251D0F91EF9016
:103B20000895EF920F938AEA6DE040E020E000E014
:103B3000EE240E94251D0F91EF900895CF93DF93FF
:103B4000C1E0D5E087EA95E00E94452118161906E4
:103B5000CCF787EA95E00E947021899385E0C73011
:103B6000D80781F7DF91CF91089587E095E062E370
:103B700071E00E941D020EC087E095E063E471E0F1
:103B80000E941D020E94911D62E370E080E090E0BF
:103B90000E94492D87EA95E00E94452118161906D2
:103BA0005CF70E949E1D81E095E06DE040E020E022
:103BB0000E94BA1C882371F387E095E065E471E008
:103BC0000E941D020E949E1D20E030E0F901EF5F7F
:103BD000FA4FD901A75CBD4F90818C919817D1F60F
:103BE0002F5F3F4F2630310589F787E095E064E588
:103BF00071E00E941D028DE060E040E020E00E9444
:103C0000821D089587EA95E040E052EC61E070E0A3
:103C10000E94C22087E095E040E855E260E070E055
:103C20000E943B0282E060E00E94B42D83E061E0EC
:103C30000E94B42D8AE061E00E94B42D8DE994E0E9
:103C400064E00E94F51A882339F487E095E064E681
:103C500071E00E941D02089587E095E06EE671E034
:103C60000E941D020E94B51D60ED77E080E090E0AB
:103C70000E94492D08956F927F928F929F92AF92EA
:103C8000BF92CF92DF92EF92FF920F931F93DF9339
:103C9000CF93CDB7DEB76DB67EB687E095E069E726
:103CA00071E00E941D0262E370E080E090E00E94FB
:103CB000492D87E067E047E00E94751D0E949E1D28
:103CC00081E095E061E040E020E00E94BA1C88239A
:103CD00009F4C5C087E095E065E471E00E941D022B
:103CE00087E095E06BE871E00E941D0262E370E0FE
:103CF00080E090E00E94492D80E460E00E94681D11
:103D00000E949E1D81E095E066E040E020E00E9478
:103D1000BA1C882309F4A3C087E095E064EA71E047
:103D20000E941D0287E095E062EB71E00E941D0297
:103D300062E370E080E090E00E94492D80E060E066
:103D400040E00E945A1D0E949E1D81E095E065E0C2
:103D500040E020E00E94BA1C882309F480C087E07C
:103D600095E065E471E00E941D0287E095E065EC56
:103D700071E00E941D0262E370E080E090E00E942A
:103D8000492D81E00E944D1D0E949E1D81E095E01D
:103D900064E040E020E00E94BA1C882309F45FC080
:103DA00087E095E065E471E00E941D020E949E1D7F
:103DB000809101058A3A09F052C0809102058A304B
:103DC00009F04DC061C080E060E04E2D2F2D0E94B3
:103DD000821D00E010E087EA95E00E944521181658
:103DE0001906CCF787EA95E00E947021682FF4014C
:103DF000E00FF11F808304301105C4F00E3311056C
:103E0000A8F481E295E040E050E00E940E238FEF9D
:103E1000C81681E0D80639F481E295E00E94351A8F
:103E2000CC24CA94DC2C0894C11CD11C0F5F1F4FFA
:103E30000034110581F60894E11CF11CEA14FB041E
:103E400010F28AE060E040EF20EF0E94821D87E0E0
:103E500095E06AED71E00E941D0281E001C080E002
:103E60000FB6F8947EBE0FBE6DBECF91DF911F914D
:103E70000F91FF90EF90DF90CF90BF90AF909F9009
:103E80008F907F906F90089587E095E06BEE71E0E2
:103E90000E941D026091060570E080E090E0982F7E
:103EA000872F762F66272091050530E040E050E00F
:103EB000622B732B842B952B982F872F762F6627B9
:103EC0002091040530E040E050E0622B732B842BFE
:103ED000952B2AE330E040E050E00E94C1305901C8
:103EE00087E095E06BEF71E00E941D02A50160E0A4
:103EF00070E087E095E02AE030E00E94020287E06F
:103F000095E00E948E018DB79EB7805490400FB609
:103F1000F8949EBF0FBE8DBF8DB69EB60894811CCF
:103F2000911CCC24DD24EE24FF2488CFDF93CF9393
:103F300000D0CDB7DEB7AC01CE0101966DE974E0DB
:103F400022E10E94A01C0F900F90CF91DF91089565
:103F50008F929F92AF92BF92CF92DF92EF92FF9299
:103F60000F931F93CF93DF9387E095E00E945A024F
:103F7000C0E0D0E00FE015E07DE0872E912C60E1FD
:103F8000A62E62E0B62E5FE3C52E52E0D52E44E4A5
:103F9000E42E42E0F42E21968DB79EB70C970FB613
:103FA000F8949EBF0FBE8DBFEDB7FEB73196ADB78B
:103FB000BEB712961C930E93119793828282B5829C
:103FC000A482D782C682D187C087F386E2860E9408
:103FD00037348DB79EB70C960FB6F8949EBF0FBEC0
:103FE0008DBF8DE994E0B8010E94941C882399F656
:103FF00087E095E0B8010E943002C8010E94961F38
:104000000E943B1E882369F087E095E067E172E03B
:104010000E941D0260ED77E080E090E00E94492D53
:1040200006C087E095E064E272E00E941D0281E232
:1040300095E00E942B1ADF91CF911F910F91FF9075
:10404000EF90DF90CF90BF90AF909F908F900895AA
:104050000E94792D0E94021E0E94A81FFDCFF89495
:10406000FFCF1F920F920FB60F9211242F933F9301
:104070004F938F939F93EF93FF934091C600E091EE
:10408000A305F091A40531969F012F7730703197E9
:104090008091A5059091A6052817390739F0ED5DA7
:1040A000FA4F40833093A4052093A305FF91EF912D
:1040B0009F918F914F913F912F910F900FBE0F9035
:1040C0001F9018958F92AF92CF92DF92EF92FF924E
:1040D0000F931F93DF93CF93CDB7DEB7FC018FE52E
:1040E00092E0918380837383628355834483378313
:1040F000268311870087F386E286D586C486A68646
:1041000087868D85808B8E85818B8F85828BCF91E5
:10411000DF911F910F91FF90EF90DF90CF90AF90C4
:104120008F9008958F92AF92CF92DF92EF92FF928D
:104130000F931F93DF93CF93CDB7DEB7FC018FE5CD
:1041400092E09183808373836283558344833783B2
:10415000268311870087F386E286D586C486A686E5
:1041600087868D85808B8E85818B8F85828BCF9185
:10417000DF911F910F91FF90EF90DF90CF90AF9064
:104180008F900895CF93DF93EC019A01AB01E885FE
:10419000F985203081EE380780E0480780E0580735
:1041A00009F445C081E090E00A8802C0880F991F99
:1041B0000A94E2F7808360E079E08DE390E00E946A
:1041C000C13021503040404050405695479537957A
:1041D0002795EC81FD813083EE81FF812083EA8584
:1041E000FB85208141E050E0CA010E8402C0880FA7
:1041F000991F0A94E2F7282B2083EA85FB8520810A
:10420000CA010F8402C0880F991F0A94E2F7282B75
:104210002083EA85FB858081088802C0440F551FF2
:104220000A94E2F7842B8083DF91CF910895108266
:1042300020E130E0CECFFC01A285B3854C9121E096
:1042400030E0C901068402C0880F991F0A94E2F782
:10425000809584238C93A285B3854C91C9010784F2
:1042600002C0880F991F0A94E2F7809584238C93EB
:10427000A285B3858C91008802C0220F331F0A9457
:10428000E2F7209528232C930895DC011296ED91F6
:10429000FC911397E058FF4F2191319180819181DA
:1042A000281B390B2F773070C9010895DC01129655
:1042B000ED91FC911397EE57FF4F20813181929140
:1042C0008291E058F0408217930719F42FEF3FEFE7
:1042D00005C0E20FF31F8081282F30E0C901089547
:1042E000DC011296ED91FC911397DF01AE57BF4FA1
:1042F0002D913C911197E058FF4F80819181E058BA
:10430000F0408217930719F42FEF3FEF0BC0E20F35
:10431000F31F80812F5F3F4F2F7730702D933C9399
:10432000282F30E0C9010895DC011296ED91FC912F
:104330001397EE57FF4F8081918192938293089556
:10434000FC01A085B18521898C9190E0022E02C0EC
:10435000959587950A94E2F780FFF6CF0484F5855A
:10436000E02D608308958FE592E09093A8058093F7
:10437000A70583E295E09093AA058093A90585ECB3
:1043800090E09093AC058093AB0584EC90E0909323
:10439000AE058093AD0580EC90E09093B0058093DE
:1043A000AF0581EC90E09093B2058093B10586EC67
:1043B00090E09093B4058093B30584E08093B505B5
:1043C00083E08093B60587E08093B70585E080930E
:1043D000B80581E08093B90508950F931F93CF939B
:1043E000DF938C01EB0109C02196D801ED91FC917E
:1043F0000190F081E02DC801099568816623A1F73D
:10440000DF91CF911F910F910895EF92FF920F933B
:104410001F93CF93DF938C017B01EA010CC0D7017E
:104420006D917D01D801ED91FC910190F081E02D1D
:10443000C80109952197209791F7DF91CF911F919E
:104440000F91FF90EF900895DC01ED91FC910280B7
:10445000F381E02D09950895CF92DF92EF92FF92BC
:104460000F931F93CF93DF936C017B01C0E0D0E0EB
:104470000EC0D601ED91FC9100811181C701BE01F2
:104480000E94EE24682FC601F80109952196F701D4
:1044900084819581C817D90760F3DF91CF911F916F
:1044A0000F91FF90EF90DF90CF9008952F923F9261
:1044B0004F925F926F927F928F929F92AF92BF9234
:1044C000CF92DF92EF92FF920F931F93DF93CF93E0
:1044D000CDB7DEB7A0970FB6F894DEBF0FBECDBF45
:1044E0001C016A017B01411551056105710549F403
:1044F00040E350E060E070E020E030E00E942023E4
:1045000054C0882499245401422E552466247724CB
:1045100001E010E00C0F1D1F080D191DC701B601A9
:10452000A30192010E94C130F80160830894811CAC
:10453000911CA11CB11CC701B601A30192010E94EC
:10454000C130C901DA016C017D01C114D104E1045B
:10455000F104F1F681E0E82EF12CEC0EFD1EE80CE2
:10456000F91C3E010894611C711CD501C40101971E
:10457000A109B1096C01C818D90814C0F601EE0DE3
:10458000FF1D40814A3010F4405D01C0495C50E09D
:1045900060E070E0C10120E030E00E942023089438
:1045A000E108F1086E147F0449F7A0960FB6F8945D
:1045B000DEBF0FBECDBFCF91DF911F910F91FF9056
:1045C000EF90DF90CF90BF90AF909F908F907F90B3
:1045D0006F905F904F903F902F900895DC012115D0
:1045E000310541F4ED91FC910190F081E02D642FB3
:1045F000099508950E9456220895EF92FF920F9315
:104600001F939A017B0100E010E0B801A7010E940E
:10461000EE221F910F91FF90EF900895EF92FF927D
:104620000F931F939A01E62EFF2400E010E0B801DB
:10463000A7010E94EE221F910F91FF90EF90089525
:10464000EF92FF920F931F93CF93DF93EC017A01C8
:104650008B012115310541F4E881F9810190F08148
:10466000E02D642F09951BC02A303105B1F477FF86
:1046700010C04DE250E060E070E020E030E00E94C9
:10468000202310950095F094E094E11CF11C011D8D
:10469000111DCE01B801A7012AE00E945622DF9128
:1046A000CF911F910F91FF90EF900895EF92FF929D
:1046B0000F931F937B019A010027F7FC0095102FA1
:1046C000B801A7010E9420231F910F91FF90EF9046
:1046D0000895EF92FF920F931F939A01E62EFF2405
:1046E00000E010E0B801A7010E9420231F910F9164
:1046F000FF90EF9008950F931F938C014DE050E0D1
:1047000060E070E020E030E00E942023C8014AE031
:1047100050E060E070E020E030E00E9420231F9134
:104720000F9108950F931F938C010E94EE22C801F0
:104730000E947B231F910F910895CF92DF92EF92F9
:10474000FF920F931F938C019A016B01EE24FF24BB
:10475000B701A6010E94EE22C8010E947B231F918F
:104760000F91FF90EF90DF90CF900895CF92DF925E
:10477000EF92FF920F931F938C019A01C62EDD24B6
:10478000EE24FF24B701A6010E94EE22C8010E9478
:104790007B231F910F91FF90EF90DF90CF900895B2
:1047A0000F931F938C010E942422C8010E947B2337
:1047B0001F910F9108950F931F938C010E942C223B
:1047C000C8010E947B231F910F9108950F931F939F
:1047D0008C010E942023C8010E947B231F910F910E
:1047E0000895CF92DF92EF92FF920F931F938C0167
:1047F0006B019A01EE24D7FCE094FE2CB701A601D0
:104800000E942023C8010E947B231F910F91FF90DB
:10481000EF90DF90CF900895CF92DF92EF92FF92CA
:104820000F931F938C019A01C62EDD24EE24FF24E2
:10483000B701A6010E942023C8010E947B231F917B
:104840000F91FF90EF90DF90CF9008959F92AF92DD
:10485000BF92CF92DF92EF92FF920F931F93CF936D
:10486000DF93EC017A018B01922ECB01BA0120E09B
:1048700030E040E050E00E94D12E88236CF4CE015D
:104880004DE250E060E070E020E030E00E94202344
:1048900017FB109517F9109520E030E040E05FE33A
:1048A000AA240BC0CA01B90120E030E040E251E483
:1048B0000E94D52E9B01AC01A394A91498F3C801C2
:1048C000B7010E946D2E5B016C010E94422F7B019B
:1048D0008C01CE01B801A7012AE030E00E94EE224F
:1048E000992029F0CE016FE772E00E942422C801CE
:1048F000B7010E946E2F9B01AC01C601B5010E9459
:104900006C2E22C020E030E040E251E40E942030D2
:104910007B018C010E943D2F5B016C01CC24B7FC14
:10492000C094DC2CCE01B601A5012AE030E00E9443
:104930002023C601B5010E94702F9B01AC01C80164
:10494000B7010E946C2E9A949920E1F6DF91CF91E5
:104950001F910F91FF90EF90DF90CF90BF90AF909D
:104960009F9008950E94262408950F931F938C0111
:104970000E942624C8010E947B231F910F91089555
:10498000FC010190F081E02DE60FF71F8081089572
:10499000DC01ED91FC911197309751F014968D91B7
:1049A0009C9115976817790718F4E60FF71F408355
:1049B0000895FC019B01848195816817790728F48B
:1049C000608171816115710529F41092BA056AEB55
:1049D00075E002C0620F731FCB010895FC010190C6
:1049E000F081E02DE60FF71F80810895FC018081A2
:1049F00091810E94EB3208950F931F93CF93DF9321
:104A0000FC018B0141155105A1F06115710589F07B
:104A100084819581EA0121978C179D0708F4EC01A8
:104A200060817181C801AE010E947433C00FD11F33
:104A30001882DF91CF911F910F9108950F931F93CB
:104A4000CF93DF93FC018B0141155105A1F0611556
:104A5000710589F084819581EA0121978C179D0762
:104A600008F4EC0160817181C801AE010E947433C9
:104A7000C00FD11F1882DF91CF911F910F91089520
:104A80000F931F938C01FC01808191810E94C5319D
:104A9000F80113821282158214821F910F910895DA
:104AA000FC01DB0114962D913C9115978481958131
:104AB000821B930B8417950710F480E00895808182
:104AC00091816D917C91840F951FA9010E9466339D
:104AD0009C0180E0232B09F481E00895FC01DB01B7
:104AE0002481358114968D919C911597281739074B
:104AF00010F480E00895CF0140E050E00E9450257E
:104B00000895DF92EF92FF920F931F93CF93DF935D
:104B1000EC018C819D8148175907B8F47A010894FB
:104B2000E11CF11CE881F981EE0DFF1DD08010829F
:104B300008811981C80170E00E9483339C010E0D29
:104B40001F1DF801D082009719F4EFEFFFEF05C0A9
:104B500088819981F901E81BF90BCF01DF91CF9191
:104B60001F910F91FF90EF90DF900895FC01448119
:104B70005581415050400E9481250895CF93DF9385
:104B8000FC01DB01848195814817590760F4C081DD
:104B9000D1816D917C91CE01840F951F0E948E333F
:104BA0009C01009719F42FEF3FEF02C02C1B3D0B27
:104BB000C901DF91CF91089540E050E00E94BE25E9
:104BC0000895CF93DF93FC0184819581481759079D
:104BD00058F4C081D181CE01840F951F70E00E94EE
:104BE0004B339C01009719F42FEF3FEF02C02C1BB1
:104BF0003D0BC901DF91CF91089540E050E00E9444
:104C0000E1250895DC01FB0114962D913C91159747
:104C1000848195812817390711F080E0089560811B
:104C200071818D919C910E9456339C0180E0232BD1
:104C300009F481E00895FC01DB012481358114969B
:104C40008D919C9115972817390710F480E00895ED
:104C5000281B390B808191816D917C91820F931F6C
:104C60000E9456339C0180E0232B09F481E00895D3
:104C7000DC01FB01608171818D919C910E94563312
:104C8000292F332727FD3095209530952227330F84
:104C9000221F3327C9010895DC01FB016081718166
:104CA0008D919C910E94563340E050E018161906F1
:104CB00014F041E050E0CA010895DC01FB0160817D
:104CC00071818D919C910E94563340E050E01816FE
:104CD000190614F441E050E0CA010895DC01FB011B
:104CE000608171818D919C910E945633292F3327C9
:104CF00027FD30952227330F221F3327C90108953E
:104D0000DC01FB0114962D913C91159784819581CE
:104D10002817390751F4608171818D919C910E940F
:104D200056339C0180E0232B09F081E090E0089548
:104D3000DC01FB0114962D913C911597848195819E
:104D40002817390711F080E00BC0608171818D91C7
:104D50009C910E9456339C0180E0232B09F481E052
:104D600090E00895FC01DB016D917C91808191813F
:104D70000E94563308950F931F93CF93DF93EC0156
:104D80008B01FB01648175818C819D81680F791F86
:104D90007D836C838A819B8186179707B8F46F5F48
:104DA0007F4F888199810E941D324C815D810097DF
:104DB00029F0998388835B834A8308C0F801848142
:104DC0009581481B590B5D834C8307C0F8016081B6
:104DD0007181888199810E944033CE01DF91CF910A
:104DE0001F910F9108950E94BB260895CF93DF93E2
:104DF000EC01CB017B836A8301960E941831998371
:104E00008883009721F41B821A821D821C82DF9105
:104E1000CF9108950F931F93CF93DF93EC018B01F4
:104E20008617970709F1FB01248135818C819D81CB
:104E30008217930750F4888199810E94C531F80147
:104E400064817581CE010E94F62628813981211561
:104E5000310551F0F801848195819D838C836081B7
:104E60007181C9010E945F33CE01DF91CF911F9103
:104E70000F9108951F93CF93DF93EC01162F81E0DC
:104E800090E09D838C83CE0161E070E00E94F62665
:104E9000E881F981309721F01083E881F98111824E
:104EA000DF91CF911F9108951F93CF93DF93EC0172
:104EB000162F81E090E09D838C83CE0161E070E04D
:104EC0000E94F626E881F981309721F01083E8816D
:104ED000F9811182DF91CF911F9108951F93CF9394
:104EE000DF93EC01162F81E090E09D838C83CE014F
:104EF00061E070E00E94F626E881F981309721F0A8
:104F00001083E881F9811182DF91CF911F9108957B
:104F10001F93CF93DF93EC01162F81E090E09D83E8
:104F20008C83CE0161E070E00E94F626E881F98171
:104F3000309721F01083E881F9811182DF91CF91C0
:104F40001F9108950F931F93CF93DF938C01EB0173
:104F50006C817D81FC01758364830E94F626F801D3
:104F600080819181009721F0688179810E945F336F
:104F7000DF91CF911F910F9108950F931F93CF93BE
:104F8000DF938C01EB016C817D81FC01758364836F
:104F90000E94F626F80180819181009721F06881B6
:104FA00079810E945F33DF91CF911F910F91089516
:104FB000EF92FF920F931F93DF93CF93CDB7DEB79E
:104FC000A1970FB6F894DEBF0FBECDBF8C01CB0109
:104FD000BA017E010894E11CF11CA7012AE030E02F
:104FE0000E941234F70101900020E9F73197EE1981
:104FF000FF09D8011596FC93EE931497C801BF01E1
:105000000E94F626F80180819181009719F0B7017E
:105010000E945F33A1960FB6F894DEBF0FBECDBFDE
:10502000CF91DF911F910F91FF90EF900895EF9234
:10503000FF920F931F93DF93CF93CDB7DEB7A19766
:105040000FB6F894DEBF0FBECDBF8C01CB01BA0105
:105050007E010894E11CF11CA7012AE030E00E94C7
:105060001234F70101900020E9F73197EE19FF099A
:10507000D8011596FC93EE931497C801BF010E94C6
:10508000F626F80180819181009719F0B7010E94FE
:105090005F33A1960FB6F894DEBF0FBECDBFCF91A0
:1050A000DF911F910F91FF90EF900895EF92FF9283
:1050B0000F931F93DF93CF93CDB7DEB7A1970FB6B2
:1050C000F894DEBF0FBECDBF8C019A0180E090E066
:1050D0007E010894E11CF11CA7010E941234F70123
:1050E00001900020E9F73197EE19FF09D8011596D4
:1050F000FC93EE931497C801BF010E94F626F801B5
:1051000080819181009719F0B7010E945F33A196C9
:105110000FB6F894DEBF0FBECDBFCF91DF911F91C8
:105120000F91FF90EF900895EF92FF920F931F93CE
:10513000DF93CF93CDB7DEB7A1970FB6F894DEBF5C
:105140000FBECDBF8C019A0180E090E07E010894F3
:10515000E11CF11CA7010E941234F701019000200C
:10516000E9F73197EE19FF09D8011596FC93EE93F4
:105170001497C801BF010E94F626F8018081918131
:10518000009719F0B7010E945F33A1960FB6F8940B
:10519000DEBF0FBECDBFCF91DF911F910F91FF906A
:1051A000EF9008950F931F93CF93DF938C01EB0142
:1051B0006115710511F4CBE8D2E0FE0101900020E9
:1051C000E9F73197EC1BFD0BD8011596FC93EE9394
:1051D0001497C801BF010E94F626F80180819181D1
:1051E000009719F0BE010E945F33DF91CF911F91AC
:1051F0000F910895AF92BF92CF92DF92EF92FF92FC
:105200000F931F93CF93DF93B82EA92E6B01C82F56
:10521000D92FFB0160817181CE010E94D228EE243A
:10522000FF240EC0088119810E0D1F1DF801808119
:1052300090E00E942233F80180830894E11CF11C65
:10524000F60184819581E816F90660F38B2D9A2D7D
:10525000DF91CF911F910F91FF90EF90DF90CF9052
:10526000BF90AF900895AF92BF92CF92DF92EF922E
:10527000FF920F931F93CF93DF93B82EA92E6B014C
:10528000C82FD92FFB0160817181CE010E94D228E5
:10529000EE24FF240EC0088119810E0D1F1DF80198
:1052A000808190E00E941A33F80180830894E11C09
:1052B000F11CF60184819581E816F90660F38B2DC7
:1052C0009A2DDF91CF911F910F91FF90EF90DF907A
:1052D000CF90BF90AF900895EF92FF920F931F93DE
:1052E000DF93CF93CDB7DEB72C970FB6F894DEBF20
:1052F0000FBECDBFFC017B018617970711F401E0BB
:1053000029C024813581DB0114968D919C911597DC
:105310002817390711F000E01DC0CE010196BF012A
:105320000E94332909811A81CE010796B7010E9494
:1053300033296F817885C8010E94563300E00097B9
:1053400009F401E0CE0107960E944025CE010196A6
:105350000E944025802F2C960FB6F894DEBF0FBE1A
:10536000CDBFCF91DF911F910F91FF90EF900895E6
:10537000CF92DF92EF92FF921F93CF93DF936C0156
:105380007B01B9012417350710F4BA01A901D7012F
:1053900014968D919C911597EB018617970708F449
:1053A000EC01D701ED91FC911197EC0FFD1F1081DD
:1053B00010826D917C91640F751FC6010E94D228E6
:1053C000D701ED91FC91EC0FFD1F1083C601DF9119
:1053D000CF911F91FF90EF90DF90CF9008950F93A2
:1053E0001F938C01FB01248135810E94B829C801DB
:1053F0001F910F9108958F929F92AF92BF92CF927B
:10540000DF92EF92FF920F931F93DF93CF9300D021
:1054100000D000D0CDB7DEB75C016B01DB01149684
:105420008D919C9115970097A1F101974817590705
:1054300080F1F501848195814817590750F5ED9168
:10544000FC9100817A014E010894811C911C1FC0BF
:10545000D501ED91FC91EE0DFF1D80818017A1F427
:10546000F601248135812E0D3F1DC401B501A70130
:105470000E94B829C401B6010E940226182FC40157
:105480000E944025112341F40894E108F108F7FE39
:10549000DFCFEE24EA94FE2CC70126960FB6F894CF
:1054A000DEBF0FBECDBFCF91DF911F910F91FF9057
:1054B000EF90DF90CF90BF90AF909F908F90089526
:1054C000FC01DB014481558114968D919C911597C7
:1054D000481B590BCF010E94FB290895AF92BF9240
:1054E000CF92DF92EF92FF920F931F93DF93CF93B0
:1054F00000D000D000D0CDB7DEB75C018B01DB015E
:105500006D917C916115710521F4B8010E94A2276B
:105510003EC0CE0101960E94D228F801E480F580B9
:10552000CC24DD240EC0D801ED91FC91EC0DFD1DC5
:10553000808190E00E941233892B31F00894C11CC5
:10554000D11CCE14DF0478F3ED80FE800BC0D801AF
:10555000ED91FC91EE0DFF1D808190E00E941233D1
:10556000892B31F00894E108F108CE14DF0478F3B8
:105570000894E11CF11CC5018E010F5F1F4FB8019B
:10558000A60197010E94B829C8010E944025C501C3
:1055900026960FB6F894DEBF0FBECDBFCF91DF9138
:1055A0001F910F91FF90EF90DF90CF90BF90AF9041
:1055B00008952F923F924F925F926F927F928F92B7
:1055C0009F92AF92BF92CF92DF92EF92FF920F9392
:1055D0001F93DF93CF93CDB7DEB768970FB6F894DC
:1055E000DEBF0FBECDBF3C01FB012A011901608166
:1055F00071816115710521F4BF010E94A2275AC073
:105600007E010894E11CF11CC7010E94D2288E0182
:10561000095F1F4FC8016BE872E00E94D228D02EAC
:10562000C12E3DE0832E912C8C0E9D1E23E1A22ED7
:10563000B12CAC0EBD1E24C0C401B70140E050E047
:1056400098010E94B8298D2D9C2DB4010E94BB2683
:10565000C4010E9440258D2D9C2DB1010E94BB26C6
:10566000F20144815581400F511FC501B7010E94CD
:10567000EF29C701B5010E940A27C5010E944025F4
:10568000C701B2010E94DC258C01FFEF8F3F9F070D
:1056900099F68D2D9C2DB7010E94BB26C3016D2D5F
:1056A0007C2D0E94A2278D2D9C2D0E944025C70194
:1056B0000E944025C30168960FB6F894DEBF0FBE66
:1056C000CDBFCF91DF911F910F91FF90EF90DF90B1
:1056D000CF90BF90AF909F908F907F906F905F9092
:1056E0004F903F902F900895EF92FF920F931F934A
:1056F000DF93CF9300D000D000D0CDB7DEB77C01D0
:10570000FB01142F022F608171816115710521F455
:10571000BF010E94A22719C0CE0101960E94D22883
:1057200089819A8101C00083612F70E00E944B3310
:10573000FC010097C1F7C7018E010F5F1F4FB80131
:105740000E94A227C8010E944025C70126960FB6D5
:10575000F894DEBF0FBECDBFCF91DF911F910F91A7
:10576000FF90EF9008950F931F93CF93DF938C01D9
:10577000EB016115710511F4CBE8D2E0FE01019057
:105780000020E9F73197EC1BFD0BD8011596FC932F
:10579000EE931497C801BF010E94F626F80180819C
:1057A0009181009719F0BE010E945F33DF91CF9184
:1057B0001F910F910895EF92FF920F931F93DF9324
:1057C000CF93CDB7DEB7A1970FB6F894DEBF0FBE6B
:1057D000CDBF8C01CB01BA017E010894E11CF11C04
:1057E000A7010E94C933F70101900020E9F7319722
:1057F000EE19FF09D8011596FC93EE931497C80192
:10580000BF010E94F626F80180819181009719F06E
:10581000B7010E945F33A1960FB6F894DEBF0FBEAA
:10582000CDBFCF91DF911F910F91FF90EF90089521
:10583000EF92FF920F931F93DF93CF93CDB7DEB715
:10584000A1970FB6F894DEBF0FBECDBF8C01CB0180
:10585000BA017E010894E11CF11CA7010E94C93322
:10586000F70101900020E9F73197EE19FF09D801FF
:105870001596FC93EE931497C801BF010E94F6267B
:10588000F80180819181009719F0B7010E945F3380
:10589000A1960FB6F894DEBF0FBECDBFCF91DF91BA
:1058A0001F910F91FF90EF900895EF92FF920F9349
:1058B0001F93DF93CF93CDB7DEB7A1970FB6F894C0
:1058C000DEBF0FBECDBF8C01CB017E010894E11C71
:1058D000F11CB7010E94A833F70101900020E9F7FD
:1058E0003197EE19FF09D8011596FC93EE931497A2
:1058F000C801BF010E94F626F801808191810097BE
:1059000019F0B7010E945F33A1960FB6F894DEBF7D
:105910000FBECDBFCF91DF911F910F91FF90EF9000
:105920000895EF92FF920F931F93DF93CF93CDB71C
:10593000DEB7A1970FB6F894DEBF0FBECDBF8C01C6
:10594000CB017E010894E11CF11CB7010E94A83331
:10595000F70101900020E9F73197EE19FF09D8010E
:105960001596FC93EE931497C801BF010E94F6268A
:10597000F80180819181009719F0B7010E945F338F
:10598000A1960FB6F894DEBF0FBECDBFCF91DF91C9
:105990001F910F91FF90EF9008951F920F920FB6F5
:1059A0000F9211242F933F938F939F93AF93BF93A5
:1059B0008091BF059091C005A091C105B091C2052D
:1059C0003091C3050196A11DB11D232F2D5F2D37E9
:1059D00020F02D570196A11DB11D2093C305809382
:1059E000BF059093C005A093C105B093C2058091F7
:1059F000BB059091BC05A091BD05B091BE05019677
:105A0000A11DB11D8093BB059093BC05A093BD055E
:105A1000B093BE05BF91AF919F918F913F912F9110
:105A20000F900FBE0F901F9018958FB7F89420918C
:105A3000BF053091C0054091C1055091C2058FBF8F
:105A4000B901CA0108959FB7F8942091BB05309120
:105A5000BC054091BD055091BE0586B5A89B06C00A
:105A60008F3F21F02F5F3F4F4F4F5F4F9FBF542F0E
:105A7000432F322F2227280F311D411D511D82E057
:105A8000220F331F441F551F8A95D1F7B901CA0150
:105A90000895EF92FF920F931F93CF93DF937B01B3
:105AA0008C010E94232DEB010EC00E94232D6C1B44
:105AB0007D0B685E7340C8F30894E108F1080109A2
:105AC0001109C851DC4FE114F1040105110569F712
:105AD000DF91CF911F910F91FF90EF900895019763
