:100000000C9434000C9451000C9451000C94510049
:100010000C9451000C9451000C9451000C9451001C
:100020000C9451000C9451000C9451000C946A0BE8
:100030000C9451000C9451000C9451000C945100FC
:100040000C9451000C9451000C94130C0C94AC0BB8
:100050000C9451000C9451000C9451000C945100DC
:100060000C9451000C94510011241FBECFEFD4E02A
:10007000DEBFCDBF11E0A0E0B1E0ECEFFEE102C0D9
:1000800005900D92A632B107D9F713E0A6E2B1E0D0
:1000900001C01D92A632B107E1F70E94140A0C9428
:1000A0007C0F0C940000DF93CF930F92CDB7DEB797
:1000B0008983EEE4F0E089818083EDE4F0E08081E3
:1000C0008823DCF7EEE4F0E080810F90CF91DF91A0
:1000D0000895DF93CF9300D000D0CDB7DEB78091E5
:1000E0004E018A838EE18093A00281E0898379C0EA
:1000F0008981282F30E08A81882F90E0880F991F0E
:10010000FC01EA5DFE4F80819181F901E056FD4FCF
:1001100080838981882F90E09C012F5F3F4F8A81E7
:10012000882F90E0880F991FFC01EA5DFE4F8081C7
:100130009181892F9927F901E056FD4F80838A81AB
:10014000833128F48A81982F9F5F9C8301C01C8291
:100150008C818A838981882F90E09C012F5F3F4F9B
:100160008981882F90E00196FC01E056FD4F408187
:100170008A81882F90E0880F991FFC01EA5DFE4F6D
:10018000808191818295807F842BF901E056FD4F1B
:1001900080838981882F90E09C012E5F3F4F8A8168
:1001A000882F90E0880F991FFC01EA5DFE4F808147
:1001B0009181929582958F7089279F708927F90187
:1001C000E056FD4F80838A81833128F48A81982FFD
:1001D0009F5F9B8301C01B828B818A8389818D5F96
:1001E000898389818F3108F483CF0F900F900F900E
:1001F0000F90CF91DF910895DF93CF93CDB7DEB706
:1002000080914E01882F90E02091BF023091C00272
:10021000880F991FFC01EA5DFE4F31832083109205
:10022000C10280914E01833118F010924E0105C039
:1002300080914E018F5F80934E01CF91DF910895A1
:10024000DF93CF93CDB7DEB78091C102882381F5CC
:10025000A8E2B0E0E8E2F0E080818C7F8C9386E059
:100260000E94530080E80E945300882F90E08F7016
:100270009070982F88279093C0028093BF0280E0EF
:100280000E945300282F30E08091BF029091C0025D
:10029000822B932B9093C0028093BF02A8E2B0E020
:1002A000E8E2F0E0808183608C9381E08093C1027A
:1002B000CF91DF910895DF93CF93CDB7DEB7ECE414
:1002C000F0E081E5808310924E011092C102CF913F
:1002D000DF910895DF93CF9300D00F92CDB7DEB7B3
:1002E00089837B836A8389818A3079F42091D10163
:1002F000822F992787FD9095FC01EF56FE4F8DE0E8
:100300008083822F8F5F8093D1012091D101822F32
:10031000992787FD9095FC01EF56FE4F89818083D8
:10032000822F8F5F8093D1018981882F90E00F9079
:100330000F900F90CF91DF910895CF92EF92FF929F
:100340000F93DF93CF93CDB7DEB72B970FB6F8940B
:10035000DEBF0FBECDBF9A8389837C836B834D83C1
:100360003F832E830887FA86E986CB8689819A8126
:100370009C012B5F3F4F8B819C814D81BC01C9014A
:100380000E94240929813A818E819F814885BC0180
:10039000C9010E942409E981FA81168AE981FA815A
:1003A0001686E981FA811286138614861586E981FC
:1003B000FA8189859A85918B808BE981FA818B8579
:1003C000838BE981FA81148AE981FA8117862B9659
:1003D0000FB6F894DEBF0FBECDBFCF91DF910F9166
:1003E000FF90EF90CF900895CF92EF92FF920F93EE
:1003F000DF93CF93CDB7DEB78AE691E090939B026F
:1004000080939A0210929D0210929C0282E0809347
:10041000950210929F0210929E0282E992E09093C0
:100420002303809322038FE491E022E332E062ED24
:1004300071E0E3ECF2E0CC246894C6F87C0100E6BD
:1004400040E6CF010E949D01CF91DF910F91FF9077
:10045000EF90CF900895DF93CF93CDB7DEB7289775
:100460000FB6F894DEBF0FBECDBF9B838A832A816F
:100470003B81CE010196BC01C9010E947509EA8148
:10048000FB818689282F30E038872F838F819885DC
:100490008430910509F419C12F8138852530310543
:1004A000ECF48F8198858130910509F441C02F814A
:1004B0003885223031052CF48F819885009739F1E9
:1004C00044C32F8138852230310509F492C08F81D1
:1004D00098858330910509F4CDC037C32F813885C5
:1004E0002630310509F48FC18F81988586309105BA
:1004F0000CF43EC12F8138852730310509F4B7C28D
:100500008F8198858830910509F4DEC21EC38981E8
:10051000803C48F08981EA81FB81828BEA81FB8102
:1005200081E0868B12C3EA81FB8181E086870DC35F
:10053000EA81FB818685882391F0EA81FB818285AF
:100540009385A485B5850196A11DB11DEA81FB8126
:1005500082879387A487B587EA81FB811686898184
:100560008D3B61F5EA81FB818289882F90E0817063
:100570009070882319F091E09E8301C01E82EA8169
:10058000FB812E812787EA81FB818289882F90E079
:100590008C709070009729F0EA81FB8182E0868B55
:1005A000D4C2EA81FB818FEF808FEA81FB818FEFDC
:1005B000818FEA81FB8184E0868BC7C28981803C80
:1005C00028F08981EA81FB81828BBFC2EA81FB81AD
:1005D00082859385A485B5850196A11DB11DEA810B
:1005E000FB8182879387A487B587EA81FB81168A7E
:1005F000ACC289818823FCF4EA81FB8182859385E2
:10060000A485B5850196A11DB11DEA81FB81828774
:100610009387A487B5878981803C48F08981EA81E6
:10062000FB81828BEA81FB8181E0868B8EC2EA812D
:10063000FB81168A8AC2EA81FB818289882F90E039
:1006400088709070009749F08981EA81FB81808FE2
:10065000EA81FB8183E0868B78C2EA81FB818FEFA0
:10066000808F8981EA81FB81818FEA81FB8184E02F
:10067000868B6BC289818823FCF4EA81FB818285A9
:100680009385A485B5850196A11DB11DEA81FB81E5
:1006900082879387A487B5878981803C48F08981C8
:1006A000EA81FB81828BEA81FB8181E0868B4DC2EE
:1006B000EA81FB81168A49C28981EA81FB81818FA7
:1006C000EA81FB8184E0868B40C2898188233CF5E6
:1006D00089818D3B29F4EA81FB8187E0868B35C2D5
:1006E000EA81FB8182859385A485B5850196A11D4C
:1006F000B11DEA81FB8182879387A487B5878981B1
:10070000803C48F08981EA81FB81828BEA81FB8110
:1007100081E0868B1AC2EA81FB81168A16C2EA81C1
:10072000FB818289882F90E082709070009749F059
:10073000EA81FB810088F189E02D898180688083CE
:1007400007C0EA81FB810088F189E02D89818083DF
:10075000EA81FB8181E0848BEA81FB8181E0878BE8
:10076000EA81FB81158AEA81FB8185E0868BEDC1F8
:1007700089818D3B29F4EA81FB8186E0868BE5C186
:10078000EA81FB819489EA81FB818389981798F03B
:10079000EA81FB8182859385A485B5850196A11D9B
:1007A000B11DEA81FB8182879387A487B587EA819F
:1007B000FB81168ACAC1EA81FB8120893189EA81DD
:1007C000FB814489842F90E0F901E80FF91F8981AA
:1007D0008083842F8F5FEA81FB81848B8981EA810A
:1007E000FB81858BEA81FB8187898F3720F0EA8145
:1007F000FB81178AAAC1EA81FB8187898F5FEA8121
:10080000FB81878BA2C189818D3B09F046C0EA81BB
:10081000FB819489EA81FB818389981798F0EA81AA
:10082000FB8182859385A485B5850196A11DB11DA7
:10083000EA81FB8182879387A487B587EA81FB8160
:10084000168A83C1EA81FB8120893189EA81FB8193
:100850004489842F90E0F901E80FF91F8981808392
:10086000842F8F5FEA81FB81848BEA81FB81158A6B
:10087000EA81FB8187898F3720F0EA81FB81178A23
:1008800007C0EA81FB8187898F5FEA81FB81878BC3
:10089000EA81FB8185E0868B58C189818E3B29F4F2
:1008A000EA81FB8188E0868B50C1EA81FB818285E9
:1008B0009385A485B5850196A11DB11DEA81FB81B3
:1008C00082879387A487B5878981803C48F0898196
:1008D000EA81FB81828BEA81FB8181E0868B35C1D5
:1008E000EA81FB818589803C08F4BDC0EA81FB81F7
:1008F0008589EA81FB81828BEA81FB818289882F4D
:1009000090E081709070882319F031E03D8301C040
:100910001D82EA81FB818D818787EA81FB81828943
:10092000882F90E08C709070009709F441C0898105
:100930008823FCF4EA81FB8182859385A485B585B3
:100940000196A11DB11DEA81FB8182879387A4874F
:10095000B5878981803C48F08981EA81FB81828B5F
:10096000EA81FB8181E0868BF0C0EA81FB81168AF7
:10097000ECC0EA81FB818289882F90E088709070BA
:10098000009749F08981EA81FB81808FEA81FB81B0
:1009900083E0868BDAC0EA81FB818FEF808F8981CB
:1009A000EA81FB81818FEA81FB8184E0868BCDC067
:1009B000EA81FB818FEF808FEA81FB818FEF818F4E
:1009C000898188233CF589818D3B29F4EA81FB816B
:1009D00087E0868BBAC0EA81FB8182859385A485F6
:1009E000B5850196A11DB11DEA81FB8182879387A0
:1009F000A487B5878981803C48F08981EA81FB81A1
:100A0000828BEA81FB8181E0868B9FC0EA81FB813A
:100A1000168A9BC0EA81FB818289882F90E08270D0
:100A20009070009749F0EA81FB810088F189E02D00
:100A300089818068808307C0EA81FB810088F18911
:100A4000E02D89818083EA81FB8181E0848BEA81CA
:100A5000FB8181E0878BEA81FB81158AEA81FB813A
:100A600085E0868B72C0EA81FB81168A6EC089811F
:100A70008E3B59F4EA81FB81148AEA81FB81178A53
:100A8000EA81FB8188E0868B60C0EA81FB818285F8
:100A90009385A485B5850196A11DB11DEA81FB81D1
:100AA00082879387A487B5878981803C48F08981B4
:100AB000EA81FB81828BEA81FB8181E0868B45C0E4
:100AC000EA81FB81168A41C089818823FCF4EA818E
:100AD000FB8182859385A485B5850196A11DB11DF5
:100AE000EA81FB8182879387A487B5878981803CCF
:100AF00048F08981EA81FB81828BEA81FB8181E078
:100B0000868B23C0EA81FB81168A1FC0EA81FB81A4
:100B100097898981981799F0EA81FB81828593856D
:100B2000A485B5850196A11DB11DEA81FB8182874F
:100B30009387A487B587EA81FB81168A06C0EA817C
:100B4000FB81168A91E09C8301C01C828C812896CF
:100B50000FB6F894DEBF0FBECDBFCF91DF910895E1
:100B6000DF93CF93CDB7DEB79091C4028091C302DB
:100B7000981779F083EC92E00E942B02882349F0C9
:100B80002091D7028091D3029091D402622F0E94CB
:100B9000980ACF91DF910895DF93CF9300D000D0D2
:100BA00000D0CDB7DEB789836A835C834B832D8306
:100BB000898180648093DE028A818093DF0282E0F3
:100BC0008093DD028B819C819093900180938F01B3
:100BD00019C03091DD02832F992787FD9095A09150
:100BE0008F01B09190012C91FC01E252FD4F2083C6
:100BF000832F8F5F8093DD02CD010196909390014A
:100C000080938F018D818E838E81882311F081E006
:100C10008E838E819D8191509D838823D1F6809112
:100C2000DD02282F8EED92E0422FBC0181EC0E9464
:100C3000B50826960FB6F894DEBF0FBECDBFCF9194
:100C4000DF9108950F93DF93CF93CDB7DEB727974A
:100C50000FB6F894DEBF0FBECDBF89836A834B8386
:100C60003D832C830E838981806C8093DE028A8190
:100C70008093DF028B818093E00283E08093DD022A
:100C80008C819D819093900180938F0119C0309148
:100C9000DD02832F992787FD9095A0918F01B09158
:100CA00090012C91FC01E252FD4F2083832F8F5F36
:100CB0008093DD02CD0101969093900180938F0186
:100CC0008E818F838F81882311F081E08F838F81C4
:100CD0009E8191509E838823D1F68091DD02282F3A
:100CE0008EED92E0422FBC0181EC0E94B508279660
:100CF0000FB6F894DEBF0FBECDBFCF91DF910F913D
:100D00000895EF920F931F93DF93CF93CDB7DEB784
:100D100028970FB6F894DEBF0FBECDBF89836A83D4
:100D20004B832C831E830D83EF828981806C80939B
:100D3000DE028A818093DF028B8180688093E002EB
:100D40008C818093E10284E08093DD028D819E811D
:100D50009093900180938F0119C03091DD02832F11
:100D6000992787FD9095A0918F01B09190012C91CA
:100D7000FC01E252FD4F2083832F8F5F8093DD02C1
:100D8000CD0101969093900180938F018F81888788
:100D90008885882311F081E0888788859F8191501C
:100DA0009F838823D1F68091DD02282F8EED92E07B
:100DB000422FBC0181EC0E94B50828960FB6F8942A
:100DC000DEBF0FBECDBFCF91DF911F910F91EF908E
:100DD0000895DF93CF930F92CDB7DEB789838981D2
:100DE00080648093DE0281E08093DD020F90CF91DA
:100DF000DF910895DF93CF9300D000D00F92CDB74D
:100E0000DEB789837B836A834C838A819B8190933D
:100E1000900180938F012091DD02822F992787FD19
:100E20009095FC01E252FD4F89818083822F8F5F74
:100E30008093DD0219C03091DD02832F992787FD51
:100E40009095A0918F01B09190012C91FC01E252FC
:100E5000FD4F2083832F8F5F8093DD02CD010196AC
:100E60009093900180938F018C818D838D81882355
:100E700011F081E08D838D819C8191509C8388232A
:100E8000D1F60F900F900F900F900F90CF91DF91B0
:100E90000895DF93CF9300D000D0CDB7DEB79A830B
:100EA00089836B8389819A819093900180938F01CC
:100EB00019C03091DD02832F992787FD9095A0916D
:100EC0008F01B09190012C91FC01E252FD4F2083E3
:100ED000832F8F5F8093DD02CD0101969093900167
:100EE00080938F018B818C838C81882311F081E02A
:100EF0008C838C819B8191509B838823D1F60F90AA
:100F00000F900F900F90CF91DF910895DF93CF93C3
:100F1000CDB7DEB78091DD02282F8EED92E0422F13
:100F2000BC0181EC0E94B508CF91DF910895DF9359
:100F3000CF93CDB7DEB71092DD02CF91DF91089548
:100F4000DF93CF9300D000D000D0CDB7DEB7898338
:100F50006A835C834B832D838B819C81909390016A
:100F600080938F019091DD02292F332727FD309543
:100F700089818064F901E252FD4F8083892F8F5F60
:100F80008093DD022091DD02822F992787FD9095C5
:100F9000FC01E252FD4F8A818083822F8F5F809314
:100FA000DD0219C03091DD02832F992787FD9095CE
:100FB000A0918F01B09190012C91FC01E252FD4F64
:100FC0002083832F8F5F8093DD02CD010196909364
:100FD000900180938F018D818E838E81882311F003
:100FE00081E08E838E819D8191509D838823D1F6EF
:100FF00026960FB6F894DEBF0FBECDBFCF91DF911E
:1010000008950F93DF93CF93CDB7DEB727970FB631
:10101000F894DEBF0FBECDBF89836A834B833D83C7
:101020002C830E838C819D819093900180938F01FE
:101030009091DD02292F332727FD30958981806C1F
:10104000F901E252FD4F8083892F8F5F8093DD028B
:101050002091DD02822F992787FD9095FC01E252B5
:10106000FD4F8A818083822F8F5F8093DD022091E4
:10107000DD02822F992787FD9095FC01E252FD4FFA
:101080008B818083822F8F5F8093DD0219C0309126
:10109000DD02832F992787FD9095A0918F01B09154
:1010A00090012C91FC01E252FD4F2083832F8F5F32
:1010B0008093DD02CD0101969093900180938F0182
:1010C0008E818F838F81882311F081E08F838F81C0
:1010D0009E8191509E838823D1F627960FB6F8946F
:1010E000DEBF0FBECDBFCF91DF910F910895DF938B
:1010F000CF93CDB7DEB78091DD02282F8EED92E041
:10110000422FBC0180EC0E94B508CF91DF91089579
:10111000DF93CF9300D0CDB7DEB783E48093910106
:101120001092920183E08093D101CE0109969A83B7
:10113000898389819A812F813885BC01C9010E94E8
:10114000BD0C8091D1018350809393018091D10196
:10115000282F81E991E0422FBC0181EC0E94B50863
:101160000F900F90CF91DF910895DF93CF9300D030
:1011700000D000D0CDB7DEB78B837D836C834E83E8
:101180001A828E81882379F0EC81FD818081882309
:1011900054F48B8182608B83EC81FD8180818F7719
:1011A000EC81FD81808388EC92E06B810E9448098C
:1011B00088EC92E06DEB0E944809198229C0898170
:1011C000282F30E08C819D81FC01E20FF31F2081EC
:1011D00088EC92E0622F0E9448098981282F30E034
:1011E0008C819D81FC01E20FF31F80818D3B29F4EE
:1011F00088EC92E06DEB0E9448098A818F3710F0ED
:101200001A8203C08A818F5F8A8389818F5F898375
:1012100099818E81981798F288EC92E06DEB0E948C
:10122000480988EC92E06EEB0E94480988EC92E055
:101230006A810E94480926960FB6F894DEBF0FBE59
:10124000CDBFCF91DF910895DF93CF9300D000D031
:101250000F92CDB7DEB79A8389837C836B834D83EE
:10126000E981FA811082E981FA811182E981FA81AA
:101270008B819C8194838383E981FA818D81828330
:101280000F900F900F900F900F90CF91DF910895D6
:10129000DF93CF9300D00F92CDB7DEB79A838983C7
:1012A0006B83E981FA8123813481E981FA8140816C
:1012B000842F90E0F901E80FF91F8B818083842F40
:1012C0008F5FE981FA818083E981FA819081E981E8
:1012D000FA818281981719F4E981FA8110820F90BE
:1012E0000F900F90CF91DF910895DF93CF9300D0AF
:1012F00000D0CDB7DEB79A8389837C836B83E98185
:10130000FA8123813481E981FA814181842F90E03F
:10131000F901E80FF91F8081EB81FC818083842F24
:101320008F5FE981FA818183E981FA819181E98185
:10133000FA818281981719F4E981FA8111820F905C
:101340000F900F900F90CF91DF910895DF93CF937F
:101350000F92CDB7DEB789838981882341F0A8E257
:10136000B0E0E8E2F0E0808181608C9307C0A8E201
:10137000B0E0E8E2F0E080818E7F8C930F90CF9117
:10138000DF910895DF93CF93CDB7DEB7E4E2F0E0CD
:101390008CE28083E7E2F0E087E08083EAE2F0E03D
:1013A00082E08083E8E2F0E084E08083CF91DF9107
:1013B0000895DF93CF93CDB7DEB7E8E2F0E0808108
:1013C000882F90E082709070009741F0A8E2B0E022
:1013D000E8E2F0E080818D7F8C9307C0A8E2B0E066
:1013E000E8E2F0E0808182608C93CF91DF910895F4
:1013F000DF93CF93CDB7DEB7A8E2B0E0E8E2F0E04C
:10140000808182608C93CF91DF910895DF93CF9399
:10141000CDB7DEB7A8E2B0E0E8E2F0E080818D7FF2
:101420008C93CF91DF910895DF93CF93CDB7DEB743
:101430002D970FB6F894DEBF0FBECDBF0E94C20934
:101440000E94580A0E945B010E94940B7894CE017E
:1014500001969A878987E0E0F1E0FC87EB87F8E066
:10146000FD87EB85FC8500808B859C8501969C879C
:101470008B87E985FA85008289859A8501969A8706
:1014800089879D8591509D87ED85EE2351F70E94B8
:10149000B00528E0CE010196AC0163E082E00E9435
:1014A000CC058091C102882391F30E94FC00EFCF0C
:1014B000DF93CF93CDB7DEB780E00E94A60980E02E
:1014C00090E00E94730A8093C2028091C202882336
:1014D0001CF48FE78093C2020E94F4010E949E0CCC
:1014E000CF91DF910895DF93CF9300D0CDB7DEB7D2
:1014F0009A838983EFE3F0E08081882F90E0827007
:1015000090700097B9F7E1E4F0E089819A819183C6
:101510008083AFE3B0E0EFE3F0E0808181608C9303
:10152000E0E4F0E080810F900F90CF91DF9108957B
:10153000DF93CF9300D00F92CDB7DEB79A83898324
:101540006B838B81882309F441C0E981FA81808112
:10155000882F90E08F3F9105C9F58B818230D8F1BB
:1015600089819A81FC01319680818823A4F1898147
:101570009A81FC0131968081682F80E090E00E9482
:10158000F10A89819A81FC0131968081282F30E00F
:101590008091C202882F90E03F932F939F938F9367
:1015A00088E091E09F938F930E9488088DB79EB743
:1015B00006960FB6F8949EBF0FBE8DBF89819A81A3
:1015C000FC01319680818093C20205C089819A8195
:1015D0006B810E941B0B0F900F900F90CF91DF91AA
:1015E0000895DF93CF9300D00F92CDB7DEB79A83E3
:1015F00089836B83EFE3F0E08081882F90E0827035
:1016000090700097B9F7EFE3F0E01082E1E4F0E0CA
:1016100089819A8191838083E0E4F0E08B818083EB
:101620000FB6F894FA9AF99A0FBE0F900F900F9098
:10163000CF91DF910895DF93CF9300D00F92CDB774
:10164000DEB79A8389836B838B818823B9F0E98124
:10165000FA818081882F90E0009781F48091BF0209
:101660009091C0029F938F9383E291E09F938F9319
:101670000E9488080F900F900F900F900F900F907E
:101680000F90CF91DF910895EF920F931F93DF9307
:10169000CF93CDB7DEB7A8E2B0E0E8E2F0E090810A
:1016A00082E089278C930E9469003091C20280EA0F
:1016B00092E00F2EFFE1EF2EF02D8C0120E04AE0AA
:1016C000632F87E00E948106CF91DF911F910F91D8
:1016D000EF9008951F920F920FB60F9211242F933F
:1016E0003F934F935F936F937F938F939F93AF93AA
:1016F000BF93EF93FF93DF93CF93CDB7DEB70E94F5
:101700002001CF91DF91FF91EF91BF91AF919F9118
:101710008F917F916F915F914F913F912F910F909A
:101720000FBE0F901F901895DF93CF93CDB7DEB704
:10173000E0E8F0E01082E1E8F0E08BE08083E8E8A8
:10174000F0E089EF90E091838083EFE6F0E082E0C3
:101750008083CF91DF9108951F920F920FB60F9261
:1017600011242F933F934F935F936F937F938F93A6
:101770009F93AF93BF93EF93FF93DF93CF93CDB737
:10178000DEB79091C8028091C9029817E1F0A6ECEB
:10179000B0E02091CB023091CC024091C902842F5D
:1017A00090E0F901E80FF91F80818C93842F8F5FFF
:1017B0008093C9029091C9028091CA02981701F5DD
:1017C0001092C9021DC080911E03882369F481E034
:1017D00080931E03E1ECF0E08DEB8083E6ECF0E01B
:1017E0008091C20280830CC0E1ECF0E08CE9808340
:1017F00010921E0380E00E94A60981E080931F03DF
:10180000CF91DF91FF91EF91BF91AF919F918F9118
:101810007F916F915F914F913F912F910F900FBEEC
:101820000F901F9018951F920F920FB60F921124D0
:101830002F933F934F935F936F937F938F939F93D8
:10184000AF93BF93EF93FF93DF93CF930F92CDB7F7
:10185000DEB7E1ECF0E08081882F90E0827090703C
:10186000009769F1E6ECF0E0808189838981882F17
:1018700090E09C012F7730708091C202882F90E019
:101880002817390741F08981882F90E08F77907071
:101890008F37910579F4E0ECF0E01082898188239C
:1018A0004CF50E94440B80911F03882319F10E947C
:1018B0008E0C20C0E0ECF0E081E080831BC0209122
:1018C000C6023091C7024091C302842F90E0D90133
:1018D000A80FB91FE6ECF0E080818C93842F8F5F16
:1018E0008093C3029091C3028091C502981711F4AE
:1018F0001092C3020F90CF91DF91FF91EF91BF91B2
:10190000AF919F918F917F916F915F914F913F9197
:101910002F910F900FBE0F901F901895DF93CF93CC
:10192000CDB7DEB781E00E94A60910921F03E1EC5B
:10193000F0E08CEB8083CF91DF910895DF93CF931C
:10194000CDB7DEB7E5ECF0E01082E4ECF0E089E141
:101950008083E0ECF0E081E08083E1ECF0E08CE972
:101960008083E2ECF0E086E0808381E080931F03D7
:1019700010921E03CF91DF910895AB01BC018091BD
:101980002203909123030E94C60C0895ABE0B0E0BF
:10199000ECECFCE00C94450F3C012B015A01FC01DE
:1019A00017821682838181FD03C06FEF7FEFC8C16C
:1019B0009AE0892E1E010894211C311CF301238119
:1019C000F20123FD859123FF81912F01882309F4E2
:1019D000B4C1853239F423FD859123FF81912F0114
:1019E000853229F4B30190E00E94BB0EE7CF982F17
:1019F000DD24CC249924FFE1FD15D0F09B3269F061
:101A00009C3228F4903259F0933291F40EC09D32FA
:101A100049F0903369F441E024C052E0D52A84E0D3
:101A2000D82A28C098E0D92A25C0E0E1DE2A22C0C1
:101A3000D7FC29C0892F80538A3070F4D6FE05C0A8
:101A4000989C902C1124980E15C0C89CC02C112471
:101A5000C80EF0E2DF2A0EC09E3229F4D6FC6DC11A
:101A600040E4D42A07C09C3619F450E8D52A02C0B5
:101A7000983649F4F20123FD959123FF91912F01AE
:101A8000992309F0B8CF892F8554833018F08052FC
:101A9000833038F444E050E0A40EB51E5FE3598370
:101AA0000FC0933631F0933779F0933509F056C073
:101AB00020C0F5018081898342E050E0A40EB51E6C
:101AC000710101E010E012C0F501E080F180D6FC68
:101AD00003C06FEF7FEF02C0692D70E042E050E07D
:101AE000A40EB51EC7010E94B00E8C015FE7D5227F
:101AF00014C0F501E080F180D6FC03C06FEF7FEFEA
:101B000002C0692D70E042E050E0A40EB51EC7018E
:101B10000E94A50E8C0150E8D52AD3FE07C01AC03A
:101B2000B30180E290E00E94BB0ECA948C2D90E03D
:101B300008171907A8F30EC0F701D7FC8591D7FE47
:101B400081917F01B30190E00E94BB0EC110CA9445
:101B5000015010400115110579F7ECC0943611F0D1
:101B6000993671F5D7FE08C0F501E080F180028159
:101B7000138144E050E00AC0F501808191817C012D
:101B80000027F7FC0095102F42E050E0A40EB51E90
:101B90005FE6D52217FF0AC010950095F094E094F7
:101BA000E11CF11C011D111D80E8D82A2AE030E05B
:101BB000A101C801B7010E94E70EF82EF21840C03B
:101BC000953729F41D2D1F7E2AE030E01DC01D2D04
:101BD000197F9F3661F0903720F4983509F0ADC039
:101BE0000FC0903739F0983709F0A7C004C028E03B
:101BF00030E00AC0106114FD146020E130E004C040
:101C000014FD166020E132E017FF08C0F501608185
:101C100071818281938144E050E008C0F5018081A8
:101C20009181BC0180E090E042E050E0A40EB51E3E
:101C3000A1010E94E70EF82EF2188FE7D82ED122CC
:101C4000D6FE0BC05EEFD522F91438F4D4FE07C0DF
:101C5000D2FC05C08FEED82202C01F2D01C0192D65
:101C6000D4FE0DC0FE01EF0DF11D8081803319F40B
:101C700099EED92208C01F5FD2FE05C003C08D2D8A
:101C8000867809F01F5F0D2DD3FC14C0D0FE0FC065
:101C90001C1510F09F2C0BC09F2C9C0C911A1C2D16
:101CA00006C0B30180E290E00E94BB0E1F5F1C15CE
:101CB000C0F304C01C1510F4C11A01C0CC2404FFE9
:101CC00010C0B30180E390E00E94BB0E02FF1EC073
:101CD00001FD03C088E790E002C088E590E0B30111
:101CE0000CC0802F867891F001FF02C08BE201C00A
:101CF00080E2D7FC8DE2B30190E00E94BB0E06C0EB
:101D0000B30180E390E00E94BB0E9A94F914C0F3F3
:101D1000FA94F101EF0DF11DB301808190E00E9472
:101D2000BB0EFF20A9F706C0B30180E290E00E943D
:101D3000BB0ECA94CC20C1F741CEF30166817781F6
:101D4000CB012B96E2E10C94610FFC0105906150F0
:101D500070400110D8F7809590958E0F9F1F0895C1
:101D6000FC016150704001900110D8F7809590956A
:101D70008E0F9F1F08950F931F93CF93DF938C01B6
:101D8000EB018B8181FF1BC082FF0DC02E813F8143
:101D90008C819D812817390764F4E881F9810193CA
:101DA000F983E88306C0E885F985802F0995892B9A
:101DB00031F48E819F8101969F838E8302C00FEF45
:101DC0001FEFC801DF91CF911F910F910895FA0184
:101DD000AA27283051F1203181F1E8946F936E7F6A
:101DE0006E5F7F4F8F4F9F4FAF4FB1E03ED0B4E05B
:101DF0003CD0670F781F891F9A1FA11D680F791F9C
:101E00008A1F911DA11D6A0F711D811D911DA11DAC
:101E100020D009F468943F912AE0269F11243019BC
:101E2000305D3193DEF6CF010895462F4770405D57
:101E30004193B3E00FD0C9F7F6CF462F4F70405D06
:101E40004A3318F0495D31FD4052419302D0A9F761
:101E5000EACFB4E0A6959795879577956795BA955B
:101E6000C9F700976105710508959B01AC010A2E21
:101E700006945795479537952795BA95C9F7620FF8
:101E8000731F841F951FA01D08952F923F924F929C
:101E90005F926F927F928F929F92AF92BF92CF92FA
:101EA000DF92EF92FF920F931F93CF93DF93CDB703
:101EB000DEB7CA1BDB0B0FB6F894DEBF0FBECDBF7B
:101EC00009942A88398848885F846E847D848C844C
:101ED0009B84AA84B984C884DF80EE80FD800C8155
:101EE0001B81AA81B981CE0FD11D0FB6F894DEBF38
:0C1EF0000FBECDBFED010895F894FFCFA8
:101EFC0001020304050607084D6F64756C652049E3
:101F0C0044206368616E676564202564202D3E2043
:061F1C00256400256400AD
:00000001FF
