:100000000C9434000C9451000C9451000C94510049
:100010000C9451000C9451000C9451000C9451001C
:100020000C9451000C9451000C9451000C946501F7
:100030000C9451000C9451000C9451000C945100FC
:100040000C9451000C9451000C9495050C94F705F8
:100050000C9451000C9451000C9451000C945100DC
:100060000C9451000C94510011241FBECFEFD4E02A
:10007000DEBFCDBF11E0A0E0B1E0ECE4F2E102C0F0
:1000800005900D92AE31B107D9F713E0AEE1B1E0C2
:1000900001C01D92AD31B107E1F70E94F5000C944B
:1000A00024090C94000090914601A8E9B2E0E92FE0
:1000B000F0E0EE0FFF1FE25EFE4F808141818C93E6
:1000C000933110F030E002C0392F3F5FE32FF0E0B2
:1000D000EE0FFF1FE25EFE4F80819181282F229557
:1000E000207F242B11962C93119724E096958795C9
:1000F0002A95E1F712968C931297333111F490E020
:1001000002C0932F9F5F139682E0A63BB80779F653
:100110000895209146018091B6029091B702E22F96
:10012000F0E0EE0FFF1FE25EFE4F9183808310929E
:10013000B802233118F01092460108952F5F2093E2
:10014000460108958091B802882371F588B18C7FAB
:1001500088B986E08EBD0DB407FEFDCF8EB580E870
:100160008EBD0DB407FEFDCF8EB590E08F70907000
:10017000982F88279093B7028093B6022091B602F9
:100180003091B7021EBC0DB407FEFDCF8EB590E0D6
:10019000822B932B9093B7028093B60288B1836031
:1001A00088B981E08093B802089581E58CBD1092F2
:1001B00046011092B8020895882311F0409A0895DC
:1001C000409808958CE284B987E087B982E08AB9C3
:1001D00084E088B90895419B02C041980895419AEE
:1001E0000895419A0895419808950E94E2000E945E
:1001F0006F050E94D5000E94560178940E94370333
:100200008091B8028823D1F30E948900F7CFDF9351
:10021000CF93CDB7DEB7A3970FB6F894DEBF0FBE6E
:10022000CDBF88B192E0892788B90E94530087EC3E
:1002300089838091B9028A838AE88B831C828EE14C
:100240008D83E8E9F2E0DE01169681918D9382E0DC
:10025000E63BF807D1F781ECBE016F5F7F4F43E2C9
:100260000E946602A3960FB6F894DEBF0FBECDBF04
:10027000CF91DF910895FC016623B9F08081882336
:10028000A1F42091B6023091B70200D000D080E0F6
:1002900091E0EDB7FEB792838183348323830E947C
:1002A00016030F900F900F900F90089510928000FA
:1002B0008BE08093810089EF90E090938900809398
:1002C000880082E080936F0008951F920F920FB60E
:1002D0000F9211242F933F934F935F936F937F93CC
:1002E0008F939F93AF93BF93EF93FF930E94A200CE
:1002F000FF91EF91BF91AF919F918F917F916F91FE
:100300005F914F913F912F910F900FBE0F901F90D3
:100310001895282F8A3069F48091C901E82FFF27AA
:10032000E7FDF095E757FE4F9DE090838F5F809348
:10033000C9018091C901E82FFF27E7FDF095E75734
:10034000FE4F20838F5F8093C901822F90E0089534
:1003500080648093D50281E08093D40208959B014C
:100360009091D402E92FFF27E7FDF095EB52FD4F66
:1003700080839F5F9093D402DB01542F0EC0809145
:10038000D402E82FFF27E7FDF095EB52FD4F9D913A
:1003900090838F5F8093D4025150552381F7240FAF
:1003A000311D309388012093870108959C01DC0161
:1003B000462F0EC08091D402E82FFF27E7FDF0956D
:1003C000EB52FD4F9D9190838F5F8093D4024150FB
:1003D000442381F7260F311D309388012093870134
:1003E00008951092D4020895CF93DF93DA0190918B
:1003F000D402E92FFF27E7FDF095EB52FD4F806413
:1004000080839F5FE92FFF27E7FDF095EB52FD4FBB
:1004100060839F5F9093D402EA01322F0EC08091D7
:10042000D402E82FFF27E7FDF095EB52FD4F99919D
:1004300090838F5F8093D4023150332381F7A20FD2
:10044000B11DB0938801A0938701DF91CF910895EA
:100450000F93CF93DF93D9019091D402E92FFF2717
:10046000E7FDF095EB52FD4F806C80839F5FE92F95
:10047000FF27E7FDF095EB52FD4F60839F5FE92F6B
:10048000FF27E7FDF095EB52FD4F40839F5F909370
:10049000D402E901202F0EC08091D402E82FFF275B
:1004A000E7FDF095EB52FD4F999190838F5F80931C
:1004B000D4022150222381F7A00FB11DB0938801EF
:1004C000A0938701DF91CF910F910895FF920F9331
:1004D0001F93CF93DF93282FEB01F42E442331F0A9
:1004E000888187FF03C022608F7788838FEB92E03B
:1004F000622F0E940D058FEB92E06DEB0E940D05BF
:1005000010E000E014C08FEB92E068810E940D05BE
:1005100088818D3B29F48FEB92E06DEB0E940D05F5
:100520001F3710F010E001C01F5F0F5F21960F15FD
:1005300050F38FEB92E06DEB0E940D058FEB92E094
:100540006EEB0E940D058FEB92E0612F0E940D056E
:10055000DF91CF911F910F91FF90089580EC65ED91
:1005600072E04091D4020E946602089581EC65ED2C
:1005700072E04091D4020E94660208950F93806C4D
:100580008093D5026093D6024093D70283E0809394
:10059000D402A901D901202F0EC08091D402E82FE6
:1005A000FF27E7FDF095EB52FD4F9D9190838F5F04
:1005B0008093D4022150222381F7400F511D509384
:1005C00088014093870181EC65ED72E04091D4028F
:1005D0000E9466020F91089580648093D502609313
:1005E000D60282E08093D402BA01DA01322F0EC023
:1005F0008091D402E82FFF27E7FDF095EB52FD4FE5
:100600009D9190838F5F8093D4023150332381F783
:10061000620F711D709388016093870181EC65ED15
:1006200072E04091D4020E9466020895DF93CF9356
:10063000CDB7DEB7FE0135968191919123E42093E9
:10064000890110928A0123E02093C901BF010E9411
:1006500050064091C901435040938B014D5F81EC9E
:1006600069E871E00E946602CF91DF910895DF93FF
:10067000CF930F92CDB7DEB79091BB028091BA02B3
:10068000981709F47BC18AEB92E0BE016F5F7F4F40
:100690000E9420058091D002843009F46FC085301B
:1006A00058F4813001F18130A0F0823009F452C059
:1006B000833009F063C15CC0863009F495C0863090
:1006C00008F46EC0873009F410C1883009F056C1B3
:1006D00015C18981803C18F08093CC0229C181E04A
:1006E0008093C8024BC18091C8028823A9F08091F1
:1006F000C4029091C502A091C602B091C7020196B2
:10070000A11DB11D8093C4029093C502A093C6029F
:10071000B093C7021092C80289818D3BA9F48091E1
:10072000CC0290E0282F21702093C9028C70907029
:10073000892B21F082E08093D00220C18FEF80933B
:10074000D2028093D302ABC0803C08F4F7C0809300
:10075000CC0214C1298127FDD4C08091CC0283FF33
:1007600003C02093D20294C08FEF8093D20203C0C3
:10077000298127FDC6C02093D30291C0298127FF7C
:1007800005C02D3B09F0BDC087E0D5CF8091CC02DC
:10079000E091CA02F091CB0281FD206820839CC0C9
:1007A00029812D3B11F486E0C6CF9091CE02809135
:1007B000CD02981708F0C2C0E091CA02F091CB02B6
:1007C000E90FF11D20839F5F9093CE028981809372
:1007D000CF028091D1028F3718F01092D102CEC093
:1007E0008F5F8093D102CAC0A981AD3BF1F4909193
:1007F000CE028091CD02981708F0A0C0E091CA0205
:10080000F091CB02E90FF11DA0839F5F9093CE0280
:100810001092CF028091D1028F3718F01092D1023E
:1008200062C08F5F8093D1025EC0AE3B09F464C0AA
:100830002091C4023091C5024091C6025091C70276
:100840002F5F3F4F4F4F5F4F2093C4023093C5023D
:100850004093C6025093C702A03C18F0A093CC026C
:1008600067C08091CF02803C08F47BC08093CC02AB
:10087000682F70E081708093C902CB018C709070FA
:10088000892B79F0A7FD14C063FF04C0A093D202A6
:1008900083E051CF8FEF8093D202A093D30284E004
:1008A0004ACF8FEF8093D2028093D302A7FF0DC06F
:1008B0002F5F3F4F4F4F5F4F2093C4023093C502CD
:1008C0004093C6025093C7024CC0E091CA02F09117
:1008D000CB0261FDA068A08381E08093CE0280936B
:1008E000D1021092CF0285E026CF29812E3B49F418
:1008F0001092CE021092D10288E01DCF298127FFED
:1009000019C08091C4029091C502A091C602B09115
:10091000C7020196A11DB11D8093C4029093C50228
:10092000A093C602B093C702203CD8F02093CC021B
:1009300081E001CF8091D1022817B1F08091C402EB
:100940009091C502A091C602B091C7020196A11D67
:10095000B11D8093C4029093C502A093C602B093C8
:10096000C7021092D0020AC01092D0028091CA022F
:100970009091CB026091CE020E9435050F90CF91ED
:10098000DF9108950F931F9389E891E0909393026C
:1009900080939202109295021092940282E08093CA
:1009A0008D0210929702109296028AE892E090933C
:1009B0001A03809319030FEB12E0C8016AEC71E08F
:1009C00040E60E940605C80105976AE272E040E62B
:1009D0000E9406051092D0021092C8021092C40222
:1009E0001092C5021092C6021092C70287E491E0ED
:1009F0009093CB028093CA0280E48093CD02109240
:100A0000CE021092C9021F910F910895FC0110822D
:100A100011827483638342830895DC011396ED9100
:100A2000FC9114978C91E80FF11D60838F5F8C937C
:100A30009C9112968C911297981709F41C92089524
:100A4000CF93DF93EC01DB01EB81FC818981E80F1F
:100A5000F11D90819C938F5F898399818A8198177A
:100A600009F41982DF91CF910895CF93DF93EC01C0
:100A7000662379F188818F3F61F5623068F1698181
:100A800067FD2AC080E090E00E943F0800D000D0BF
:100A900000D0EDB7FEB7319683E091E0ADB7BEB7B9
:100AA00012969C938E9311978091B9028283138240
:100AB0008981848315820E94160389818093B902FB
:100AC0008DB79EB706960FB6F8949EBF0FBE8DBF2A
:100AD00003C0CE010E943B01DF91CF91089580E0D9
:100AE0000E94DC0080E090E00E9437088093B90209
:100AF00087FF03C08FE78093B9020E94C2040E945F
:100B0000820508951092C50089E18093C40091E0A8
:100B10009093C0008CE98093C10086E08093C2006E
:100B2000909316031092150308951F920F920FB61B
:100B30000F9211242F933F934F935F936F937F9363
:100B40008F939F93AF93BF93EF93FF938091C100D7
:100B500081FF26C04091C600242F30E02F773070EF
:100B60008091B90290E02817390719F02F37310525
:100B700099F41092C00047FF29C00E94070180919C
:100B80001603882319F181E00E94DC0010921603FD
:100B90008CEB8093C1001AC081E08093C00016C026
:100BA000E091BD02F091BE028091BA029091C60020
:100BB000E80FF11D90838F5F8093BA029091BA0283
:100BC0008091BC02981711F41092BA02FF91EF9134
:100BD000BF91AF919F918F917F916F915F914F9155
:100BE0003F912F910F900FBE0F901F9018951F925D
:100BF0000F920FB60F9211242F933F934F935F9351
:100C00006F937F938F939F93AF93BF93EF93FF93D4
:100C10009091BF028091C0029817B9F0E091C20292
:100C2000F091C3028091C002E80FF11D9081909372
:100C3000C6008F5F8093C0029091C0028091C10274
:100C40009817E9F41092C0021AC080911503882306
:100C500059F481E0809315038DEB8093C10080915E
:100C6000B9028093C6000BC08CE98093C10010923A
:100C7000150380E00E94DC0081E080931603FF9161
:100C8000EF91BF91AF919F918F917F916F915F9104
:100C90004F913F912F910F900FBE0F901F9018957D
:100CA0009C01AB018091190390911A03B9010E9434
:100CB0005A060895ABE0B0E0E0E6F6E00C94ED08EB
:100CC0003C012B015A01FC0117821682838181FDB0
:100CD00003C06FEF7FEFC6C19AE0892E1E01089412
:100CE000211C311CF3012381F20123FD859123FF97
:100CF00081912F01882309F4B2C1853239F423FD93
:100D0000859123FF81912F01853229F490E0B30171
:100D10000E946308E7CF982FFF24EE249924FFE177
:100D2000FF15D0F09B3269F09C3228F4903259F0D4
:100D3000933291F40EC09D3249F0903369F441E052
:100D400024C052E0F52A84E0F82A28C098E0F92A65
:100D500025C0E0E1FE2A22C0F7FC29C0892F80537C
:100D60008A3070F4F6FE05C0989C902C1124980EE1
:100D700015C0E89CE02C1124E80EF0E2FF2A0EC01A
:100D80009E3229F4F6FC6BC140E4F42A07C09C367D
:100D900019F450E8F52A02C0983649F4F20123FD0F
:100DA000959123FF91912F01992309F0B8CF892FB5
:100DB0008554833018F08052833038F444E050E09A
:100DC000A40EB51E5FE359830FC0933631F09337FD
:100DD00079F0933509F056C020C0F50180818983F0
:100DE00042E050E0A40EB51E610101E010E012C027
:100DF000F501C080D180F6FC03C06FEF7FEF02C029
:100E0000692D70E042E050E0A40EB51EC6010E94BC
:100E100058088C015FE7F52214C0F501C080D1802D
:100E2000F6FC03C06FEF7FEF02C0692D70E042E077
:100E300050E0A40EB51EC6010E944D088C0150E87A
:100E4000F52AF3FE07C01AC080E290E0B3010E94C9
:100E50006308EA948E2D90E008171907A8F30EC0D6
:100E6000F601F7FC8591F7FE81916F0190E0B301E7
:100E70000E946308E110EA94015010400115110529
:100E800079F7EAC0943611F0993669F5F7FE08C093
:100E9000F501208131814281538184E090E00AC0D4
:100EA000F501808191819C01442737FD4095542FA5
:100EB00082E090E0A80EB91E9FE6F92257FF09C014
:100EC00050954095309521953F4F4F4F5F4FE0E84B
:100ED000FE2ACA01B901A1012AE030E00E948F0870
:100EE000D82ED21840C0953729F41F2D1F7E2AE036
:100EF00030E01DC01F2D197F9F3661F0903720F420
:100F0000983509F0ACC00FC0903739F0983709F028
:100F1000A6C004C028E030E00AC0106114FD1460CF
:100F200020E130E004C014FD166020E132E017FF3C
:100F300008C0F501608171818281938144E050E0B5
:100F400008C0F50180819181BC0180E090E042E021
:100F500050E0A40EB51EA1010E948F08D82ED21811
:100F60008FE7F82EF122F6FE0BC05EEFF522D914C2
:100F700038F4F4FE07C0F2FC05C08FEEF82202C080
:100F80001D2D01C0192DF4FE0DC0FE01ED0DF11D4A
:100F90008081803319F499EEF92208C01F5FF2FEB8
:100FA00005C003C08F2D867809F01F5F0F2DF3FC5D
:100FB00014C0F0FE0FC01E1510F09D2C0BC09D2C10
:100FC0009E0C911A1E2D06C080E290E0B3010E9493
:100FD00063081F5F1E15C0F304C01E1510F4E11A4C
:100FE00001C0EE2404FF0FC080E390E0B3010E9433
:100FF000630802FF1DC001FD03C088E790E00EC03A
:1010000088E590E00BC0802F867891F001FF02C048
:101010008BE201C080E2F7FC8DE290E0B3010E9418
:10102000630806C080E390E0B3010E9463089A94CD
:10103000D914C0F3DA94F101ED0DF11D808190E037
:10104000B3010E946308DD20A9F706C080E290E0AA
:10105000B3010E946308EA94EE20C1F743CEF30186
:1010600066817781CB012B96E2E10C940909F9990D
:10107000FECF92BD81BDF89A992780B50895262F9D
:10108000F999FECF1FBA92BD81BD20BD0FB6F8946D
:10109000FA9AF99A0FBE01960895FC0105906150E5
:1010A00070400110D8F7809590958E0F9F1F08957E
:1010B000FC016150704001900110D8F78095909527
:1010C0008E0F9F1F08950F931F93CF93DF938C0173
:1010D000EB018B8181FF1BC082FF0DC02E813F8100
:1010E0008C819D812817390764F4E881F981019387
:1010F000F983E88306C0E885F985802F0995892B57
:1011000031F48E819F8101969F838E8302C00FEF01
:101110001FEFC801DF91CF911F910F910895FA0140
:10112000AA27283051F1203181F1E8946F936E7F26
:101130006E5F7F4F8F4F9F4FAF4FB1E03ED0B4E017
:101140003CD0670F781F891F9A1FA11D680F791F58
:101150008A1F911DA11D6A0F711D811D911DA11D69
:1011600020D009F468943F912AE0269F1124301979
:10117000305D3193DEF6CF010895462F4770405D14
:101180004193B3E00FD0C9F7F6CF462F4F70405DC3
:101190004A3318F0495D31FD4052419302D0A9F71E
:1011A000EACFB4E0A6959795879577956795BA9518
:1011B000C9F700976105710508959B01AC010A2EDE
:1011C00006945795479537952795BA95C9F7620FB5
:1011D000731F841F951FA01D08952F923F924F9259
:1011E0005F926F927F928F929F92AF92BF92CF92B7
:1011F000DF92EF92FF920F931F93CF93DF93CDB7C0
:10120000DEB7CA1BDB0B0FB6F894DEBF0FBECDBF37
:1012100009942A88398848885F846E847D848C8408
:101220009B84AA84B984C884DF80EE80FD800C8111
:101230001B81AA81B981CE0FD11D0FB6F894DEBFF4
:0C1240000FBECDBFED010895F894FFCF64
:10124C002564004D6F64756C6520494420636861AA
:0E125C006E676564202564202D3E2025640009
:00000001FF
